{
  "contractName": "GameItem",
  "abi": [
    {
      "inputs": [
        {
          "internalType": "uint256",
          "name": "cap",
          "type": "uint256"
        }
      ],
      "stateMutability": "nonpayable",
      "type": "constructor"
    },
    {
      "anonymous": false,
      "inputs": [
        {
          "indexed": true,
          "internalType": "address",
          "name": "owner",
          "type": "address"
        },
        {
          "indexed": true,
          "internalType": "address",
          "name": "approved",
          "type": "address"
        },
        {
          "indexed": true,
          "internalType": "uint256",
          "name": "tokenId",
          "type": "uint256"
        }
      ],
      "name": "Approval",
      "type": "event"
    },
    {
      "anonymous": false,
      "inputs": [
        {
          "indexed": true,
          "internalType": "address",
          "name": "owner",
          "type": "address"
        },
        {
          "indexed": true,
          "internalType": "address",
          "name": "operator",
          "type": "address"
        },
        {
          "indexed": false,
          "internalType": "bool",
          "name": "approved",
          "type": "bool"
        }
      ],
      "name": "ApprovalForAll",
      "type": "event"
    },
    {
      "anonymous": false,
      "inputs": [
        {
          "indexed": true,
          "internalType": "address",
          "name": "previousOwner",
          "type": "address"
        },
        {
          "indexed": true,
          "internalType": "address",
          "name": "newOwner",
          "type": "address"
        }
      ],
      "name": "OwnershipTransferred",
      "type": "event"
    },
    {
      "anonymous": false,
      "inputs": [
        {
          "indexed": true,
          "internalType": "address",
          "name": "from",
          "type": "address"
        },
        {
          "indexed": true,
          "internalType": "address",
          "name": "to",
          "type": "address"
        },
        {
          "indexed": true,
          "internalType": "uint256",
          "name": "tokenId",
          "type": "uint256"
        }
      ],
      "name": "Transfer",
      "type": "event"
    },
    {
      "inputs": [
        {
          "internalType": "address",
          "name": "to",
          "type": "address"
        },
        {
          "internalType": "uint256",
          "name": "tokenId",
          "type": "uint256"
        }
      ],
      "name": "approve",
      "outputs": [],
      "stateMutability": "nonpayable",
      "type": "function"
    },
    {
      "inputs": [
        {
          "internalType": "address",
          "name": "owner",
          "type": "address"
        }
      ],
      "name": "balanceOf",
      "outputs": [
        {
          "internalType": "uint256",
          "name": "",
          "type": "uint256"
        }
      ],
      "stateMutability": "view",
      "type": "function"
    },
    {
      "inputs": [
        {
          "internalType": "uint256",
          "name": "tokenId",
          "type": "uint256"
        }
      ],
      "name": "getApproved",
      "outputs": [
        {
          "internalType": "address",
          "name": "",
          "type": "address"
        }
      ],
      "stateMutability": "view",
      "type": "function"
    },
    {
      "inputs": [
        {
          "internalType": "address",
          "name": "owner",
          "type": "address"
        },
        {
          "internalType": "address",
          "name": "operator",
          "type": "address"
        }
      ],
      "name": "isApprovedForAll",
      "outputs": [
        {
          "internalType": "bool",
          "name": "",
          "type": "bool"
        }
      ],
      "stateMutability": "view",
      "type": "function"
    },
    {
      "inputs": [],
      "name": "name",
      "outputs": [
        {
          "internalType": "string",
          "name": "",
          "type": "string"
        }
      ],
      "stateMutability": "view",
      "type": "function"
    },
    {
      "inputs": [],
      "name": "owner",
      "outputs": [
        {
          "internalType": "address",
          "name": "",
          "type": "address"
        }
      ],
      "stateMutability": "view",
      "type": "function"
    },
    {
      "inputs": [
        {
          "internalType": "uint256",
          "name": "tokenId",
          "type": "uint256"
        }
      ],
      "name": "ownerOf",
      "outputs": [
        {
          "internalType": "address",
          "name": "",
          "type": "address"
        }
      ],
      "stateMutability": "view",
      "type": "function"
    },
    {
      "inputs": [],
      "name": "renounceOwnership",
      "outputs": [],
      "stateMutability": "nonpayable",
      "type": "function"
    },
    {
      "inputs": [
        {
          "internalType": "address",
          "name": "from",
          "type": "address"
        },
        {
          "internalType": "address",
          "name": "to",
          "type": "address"
        },
        {
          "internalType": "uint256",
          "name": "tokenId",
          "type": "uint256"
        }
      ],
      "name": "safeTransferFrom",
      "outputs": [],
      "stateMutability": "nonpayable",
      "type": "function"
    },
    {
      "inputs": [
        {
          "internalType": "address",
          "name": "from",
          "type": "address"
        },
        {
          "internalType": "address",
          "name": "to",
          "type": "address"
        },
        {
          "internalType": "uint256",
          "name": "tokenId",
          "type": "uint256"
        },
        {
          "internalType": "bytes",
          "name": "_data",
          "type": "bytes"
        }
      ],
      "name": "safeTransferFrom",
      "outputs": [],
      "stateMutability": "nonpayable",
      "type": "function"
    },
    {
      "inputs": [
        {
          "internalType": "address",
          "name": "operator",
          "type": "address"
        },
        {
          "internalType": "bool",
          "name": "approved",
          "type": "bool"
        }
      ],
      "name": "setApprovalForAll",
      "outputs": [],
      "stateMutability": "nonpayable",
      "type": "function"
    },
    {
      "inputs": [
        {
          "internalType": "bytes4",
          "name": "interfaceId",
          "type": "bytes4"
        }
      ],
      "name": "supportsInterface",
      "outputs": [
        {
          "internalType": "bool",
          "name": "",
          "type": "bool"
        }
      ],
      "stateMutability": "view",
      "type": "function"
    },
    {
      "inputs": [],
      "name": "symbol",
      "outputs": [
        {
          "internalType": "string",
          "name": "",
          "type": "string"
        }
      ],
      "stateMutability": "view",
      "type": "function"
    },
    {
      "inputs": [
        {
          "internalType": "uint256",
          "name": "tokenId",
          "type": "uint256"
        }
      ],
      "name": "tokenURI",
      "outputs": [
        {
          "internalType": "string",
          "name": "",
          "type": "string"
        }
      ],
      "stateMutability": "view",
      "type": "function"
    },
    {
      "inputs": [
        {
          "internalType": "address",
          "name": "from",
          "type": "address"
        },
        {
          "internalType": "address",
          "name": "to",
          "type": "address"
        },
        {
          "internalType": "uint256",
          "name": "tokenId",
          "type": "uint256"
        }
      ],
      "name": "transferFrom",
      "outputs": [],
      "stateMutability": "nonpayable",
      "type": "function"
    },
    {
      "inputs": [
        {
          "internalType": "address",
          "name": "newOwner",
          "type": "address"
        }
      ],
      "name": "transferOwnership",
      "outputs": [],
      "stateMutability": "nonpayable",
      "type": "function"
    },
    {
      "inputs": [],
      "name": "contractURI",
      "outputs": [
        {
          "internalType": "string",
          "name": "",
          "type": "string"
        }
      ],
      "stateMutability": "pure",
      "type": "function"
    },
    {
      "inputs": [
        {
          "internalType": "address",
          "name": "to",
          "type": "address"
        },
        {
          "internalType": "string",
          "name": "tokenURI",
          "type": "string"
        }
      ],
      "name": "mint",
      "outputs": [],
      "stateMutability": "nonpayable",
      "type": "function"
    },
    {
      "inputs": [],
      "name": "totalSupply",
      "outputs": [
        {
          "internalType": "uint256",
          "name": "",
          "type": "uint256"
        }
      ],
      "stateMutability": "view",
      "type": "function"
    }
  ],
  "bytecode": "0x60806040523480156200001157600080fd5b5060405162003490380380620034908339818101604052810190620000379190620002f2565b6040518060400160405280600981526020017f524f536c617965727300000000000000000000000000000000000000000000008152506040518060400160405280600381526020017f524f5300000000000000000000000000000000000000000000000000000000008152508160009080519060200190620000bb9291906200022b565b508060019080519060200190620000d49291906200022b565b50505062000109620000f46200015d640100000000026401000000009004565b62000165640100000000026401000000009004565b600081116200014f576040517f08c379a0000000000000000000000000000000000000000000000000000000008152600401620001469062000360565b60405180910390fd5b80600881905550506200041c565b600033905090565b6000600760009054906101000a900473ffffffffffffffffffffffffffffffffffffffff16905081600760006101000a81548173ffffffffffffffffffffffffffffffffffffffff021916908373ffffffffffffffffffffffffffffffffffffffff1602179055508173ffffffffffffffffffffffffffffffffffffffff168173ffffffffffffffffffffffffffffffffffffffff167f8be0079c531659141344cd1fd0a4f28419497f9722a3daafe3b4186f6b6457e060405160405180910390a35050565b82805462000239906200039d565b90600052602060002090601f0160209004810192826200025d5760008555620002a9565b82601f106200027857805160ff1916838001178555620002a9565b82800160010185558215620002a9579182015b82811115620002a85782518255916020019190600101906200028b565b5b509050620002b89190620002bc565b5090565b5b80821115620002d7576000816000905550600101620002bd565b5090565b600081519050620002ec8162000402565b92915050565b6000602082840312156200030557600080fd5b60006200031584828501620002db565b91505092915050565b60006200032d600e8362000382565b91507f45524337323120636170206973200000000000000000000000000000000000006000830152602082019050919050565b600060208201905081810360008301526200037b816200031e565b9050919050565b600082825260208201905092915050565b6000819050919050565b60006002820490506001821680620003b657607f821691505b60208210811415620003cd57620003cc620003d3565b5b50919050565b7f4e487b7100000000000000000000000000000000000000000000000000000000600052602260045260246000fd5b6200040d8162000393565b81146200041957600080fd5b50565b613064806200042c6000396000f3fe608060405234801561001057600080fd5b506004361061013e576000357c010000000000000000000000000000000000000000000000000000000090048063715018a6116100ca578063c87b56dd1161008e578063c87b56dd14610311578063d0def52114610341578063e8a3d4851461035d578063e985e9c51461037b578063f2fde38b146103ab5761013e565b8063715018a6146102935780638da5cb5b1461029d57806395d89b41146102bb578063a22cb465146102d9578063b88d4fde146102f55761013e565b806318160ddd1161011157806318160ddd146101dd57806323b872dd146101fb57806342842e0e146102175780636352211e1461023357806370a08231146102635761013e565b806301ffc9a71461014357806306fdde0314610173578063081812fc14610191578063095ea7b3146101c1575b600080fd5b61015d600480360381019061015891906120c2565b6103c7565b60405161016a919061292c565b60405180910390f35b61017b6104a9565b6040516101889190612947565b60405180910390f35b6101ab60048036038101906101a69190612114565b61053b565b6040516101b891906128c5565b60405180910390f35b6101db60048036038101906101d69190612086565b6105c0565b005b6101e56106d8565b6040516101f29190612ba9565b60405180910390f35b61021560048036038101906102109190611f2c565b6106e9565b005b610231600480360381019061022c9190611f2c565b610749565b005b61024d60048036038101906102489190612114565b610769565b60405161025a91906128c5565b60405180910390f35b61027d60048036038101906102789190611ec7565b61081b565b60405161028a9190612ba9565b60405180910390f35b61029b6108d3565b005b6102a561095b565b6040516102b291906128c5565b60405180910390f35b6102c3610985565b6040516102d09190612947565b60405180910390f35b6102f360048036038101906102ee9190611ff6565b610a17565b005b61030f600480360381019061030a9190611f7b565b610b98565b005b61032b60048036038101906103269190612114565b610bfa565b6040516103389190612947565b60405180910390f35b61035b60048036038101906103569190612032565b610d4c565b005b610365610dfc565b6040516103729190612947565b60405180910390f35b61039560048036038101906103909190611ef0565b610e1c565b6040516103a2919061292c565b60405180910390f35b6103c560048036038101906103c09190611ec7565b610eb0565b005b60007f80ac58cd000000000000000000000000000000000000000000000000000000007bffffffffffffffffffffffffffffffffffffffffffffffffffffffff1916827bffffffffffffffffffffffffffffffffffffffffffffffffffffffff1916148061049257507f5b5e139f000000000000000000000000000000000000000000000000000000007bffffffffffffffffffffffffffffffffffffffffffffffffffffffff1916827bffffffffffffffffffffffffffffffffffffffffffffffffffffffff1916145b806104a257506104a182610fa8565b5b9050919050565b6060600080546104b890612e09565b80601f01602080910402602001604051908101604052809291908181526020018280546104e490612e09565b80156105315780601f1061050657610100808354040283529160200191610531565b820191906000526020600020905b81548152906001019060200180831161051457829003601f168201915b5050505050905090565b600061054682611012565b610585576040517f08c379a000000000000000000000000000000000000000000000000000000000815260040161057c90612ae9565b60405180910390fd5b6004600083815260200190815260200160002060009054906101000a900473ffffffffffffffffffffffffffffffffffffffff169050919050565b60006105cb82610769565b90508073ffffffffffffffffffffffffffffffffffffffff168373ffffffffffffffffffffffffffffffffffffffff16141561063c576040517f08c379a000000000000000000000000000000000000000000000000000000000815260040161063390612b69565b60405180910390fd5b8073ffffffffffffffffffffffffffffffffffffffff1661065b61107e565b73ffffffffffffffffffffffffffffffffffffffff16148061068a57506106898161068461107e565b610e1c565b5b6106c9576040517f08c379a00000000000000000000000000000000000000000000000000000000081526004016106c090612a29565b60405180910390fd5b6106d38383611086565b505050565b60006106e4600961113f565b905090565b6106fa6106f461107e565b8261114d565b610739576040517f08c379a000000000000000000000000000000000000000000000000000000000815260040161073090612b89565b60405180910390fd5b61074483838361122b565b505050565b61076483838360405180602001604052806000815250610b98565b505050565b6000806002600084815260200190815260200160002060009054906101000a900473ffffffffffffffffffffffffffffffffffffffff169050600073ffffffffffffffffffffffffffffffffffffffff168173ffffffffffffffffffffffffffffffffffffffff161415610812576040517f08c379a000000000000000000000000000000000000000000000000000000000815260040161080990612a69565b60405180910390fd5b80915050919050565b60008073ffffffffffffffffffffffffffffffffffffffff168273ffffffffffffffffffffffffffffffffffffffff16141561088c576040517f08c379a000000000000000000000000000000000000000000000000000000000815260040161088390612a49565b60405180910390fd5b600360008373ffffffffffffffffffffffffffffffffffffffff1673ffffffffffffffffffffffffffffffffffffffff168152602001908152602001600020549050919050565b6108db61107e565b73ffffffffffffffffffffffffffffffffffffffff166108f961095b565b73ffffffffffffffffffffffffffffffffffffffff161461094f576040517f08c379a000000000000000000000000000000000000000000000000000000000815260040161094690612b09565b60405180910390fd5b6109596000611487565b565b6000600760009054906101000a900473ffffffffffffffffffffffffffffffffffffffff16905090565b60606001805461099490612e09565b80601f01602080910402602001604051908101604052809291908181526020018280546109c090612e09565b8015610a0d5780601f106109e257610100808354040283529160200191610a0d565b820191906000526020600020905b8154815290600101906020018083116109f057829003601f168201915b5050505050905090565b610a1f61107e565b73ffffffffffffffffffffffffffffffffffffffff168273ffffffffffffffffffffffffffffffffffffffff161415610a8d576040517f08c379a0000000000000000000000000000000000000000000000000000000008152600401610a84906129e9565b60405180910390fd5b8060056000610a9a61107e565b73ffffffffffffffffffffffffffffffffffffffff1673ffffffffffffffffffffffffffffffffffffffff16815260200190815260200160002060008473ffffffffffffffffffffffffffffffffffffffff1673ffffffffffffffffffffffffffffffffffffffff16815260200190815260200160002060006101000a81548160ff0219169083151502179055508173ffffffffffffffffffffffffffffffffffffffff16610b4761107e565b73ffffffffffffffffffffffffffffffffffffffff167f17307eab39ab6107e8899845ad3d59bd9653f200f220920489ca2b5937696c3183604051610b8c919061292c565b60405180910390a35050565b610ba9610ba361107e565b8361114d565b610be8576040517f08c379a0000000000000000000000000000000000000000000000000000000008152600401610bdf90612b89565b60405180910390fd5b610bf48484848461154d565b50505050565b6060610c0582611012565b610c44576040517f08c379a0000000000000000000000000000000000000000000000000000000008152600401610c3b90612ac9565b60405180910390fd5b6000600660008481526020019081526020016000208054610c6490612e09565b80601f0160208091040260200160405190810160405280929190818152602001828054610c9090612e09565b8015610cdd5780601f10610cb257610100808354040283529160200191610cdd565b820191906000526020600020905b815481529060010190602001808311610cc057829003601f168201915b505050505090506000610cee6115a9565b9050600081511415610d04578192505050610d47565b600082511115610d39578082604051602001610d219291906128a1565b60405160208183030381529060405292505050610d47565b610d42846115c0565b925050505b919050565b610d5461107e565b73ffffffffffffffffffffffffffffffffffffffff16610d7261095b565b73ffffffffffffffffffffffffffffffffffffffff1614610dc8576040517f08c379a0000000000000000000000000000000000000000000000000000000008152600401610dbf90612b09565b60405180910390fd5b610ddb82610dd6600961113f565b611667565b610dee610de8600961113f565b82611685565b610df860096116f9565b5050565b6060604051806080016040528060508152602001612fdf60509139905090565b6000600560008473ffffffffffffffffffffffffffffffffffffffff1673ffffffffffffffffffffffffffffffffffffffff16815260200190815260200160002060008373ffffffffffffffffffffffffffffffffffffffff1673ffffffffffffffffffffffffffffffffffffffff16815260200190815260200160002060009054906101000a900460ff16905092915050565b610eb861107e565b73ffffffffffffffffffffffffffffffffffffffff16610ed661095b565b73ffffffffffffffffffffffffffffffffffffffff1614610f2c576040517f08c379a0000000000000000000000000000000000000000000000000000000008152600401610f2390612b09565b60405180910390fd5b600073ffffffffffffffffffffffffffffffffffffffff168173ffffffffffffffffffffffffffffffffffffffff161415610f9c576040517f08c379a0000000000000000000000000000000000000000000000000000000008152600401610f9390612989565b60405180910390fd5b610fa581611487565b50565b60007f01ffc9a7000000000000000000000000000000000000000000000000000000007bffffffffffffffffffffffffffffffffffffffffffffffffffffffff1916827bffffffffffffffffffffffffffffffffffffffffffffffffffffffff1916149050919050565b60008073ffffffffffffffffffffffffffffffffffffffff166002600084815260200190815260200160002060009054906101000a900473ffffffffffffffffffffffffffffffffffffffff1673ffffffffffffffffffffffffffffffffffffffff1614159050919050565b600033905090565b816004600083815260200190815260200160002060006101000a81548173ffffffffffffffffffffffffffffffffffffffff021916908373ffffffffffffffffffffffffffffffffffffffff160217905550808273ffffffffffffffffffffffffffffffffffffffff166110f983610769565b73ffffffffffffffffffffffffffffffffffffffff167f8c5be1e5ebec7d5bd14f71427d1e84f3dd0314c0f7b2291e5b200ac8c7c3b92560405160405180910390a45050565b600081600001549050919050565b600061115882611012565b611197576040517f08c379a000000000000000000000000000000000000000000000000000000000815260040161118e90612a09565b60405180910390fd5b60006111a283610769565b90508073ffffffffffffffffffffffffffffffffffffffff168473ffffffffffffffffffffffffffffffffffffffff16148061121157508373ffffffffffffffffffffffffffffffffffffffff166111f98461053b565b73ffffffffffffffffffffffffffffffffffffffff16145b8061122257506112218185610e1c565b5b91505092915050565b8273ffffffffffffffffffffffffffffffffffffffff1661124b82610769565b73ffffffffffffffffffffffffffffffffffffffff16146112a1576040517f08c379a000000000000000000000000000000000000000000000000000000000815260040161129890612b29565b60405180910390fd5b600073ffffffffffffffffffffffffffffffffffffffff168273ffffffffffffffffffffffffffffffffffffffff161415611311576040517f08c379a0000000000000000000000000000000000000000000000000000000008152600401611308906129c9565b60405180910390fd5b61131c83838361170f565b611327600082611086565b6001600360008573ffffffffffffffffffffffffffffffffffffffff1673ffffffffffffffffffffffffffffffffffffffff16815260200190815260200160002060008282546113779190612d1f565b925050819055506001600360008473ffffffffffffffffffffffffffffffffffffffff1673ffffffffffffffffffffffffffffffffffffffff16815260200190815260200160002060008282546113ce9190612c98565b92505081905550816002600083815260200190815260200160002060006101000a81548173ffffffffffffffffffffffffffffffffffffffff021916908373ffffffffffffffffffffffffffffffffffffffff160217905550808273ffffffffffffffffffffffffffffffffffffffff168473ffffffffffffffffffffffffffffffffffffffff167fddf252ad1be2c89b69c2b068fc378daa952ba7f163c4a11628f55a4df523b3ef60405160405180910390a4505050565b6000600760009054906101000a900473ffffffffffffffffffffffffffffffffffffffff16905081600760006101000a81548173ffffffffffffffffffffffffffffffffffffffff021916908373ffffffffffffffffffffffffffffffffffffffff1602179055508173ffffffffffffffffffffffffffffffffffffffff168173ffffffffffffffffffffffffffffffffffffffff167f8be0079c531659141344cd1fd0a4f28419497f9722a3daafe3b4186f6b6457e060405160405180910390a35050565b61155884848461122b565b61156484848484611714565b6115a3576040517f08c379a000000000000000000000000000000000000000000000000000000000815260040161159a90612969565b60405180910390fd5b50505050565b606060405180602001604052806000815250905090565b60606115cb82611012565b61160a576040517f08c379a000000000000000000000000000000000000000000000000000000000815260040161160190612b49565b60405180910390fd5b60006116146115a9565b90506000815111611634576040518060200160405280600081525061165f565b8061163e846118e3565b60405160200161164f9291906128a1565b6040516020818303038152906040525b915050919050565b611681828260405180602001604052806000815250611aaf565b5050565b61168e82611012565b6116cd576040517f08c379a00000000000000000000000000000000000000000000000000000000081526004016116c490612a89565b60405180910390fd5b806006600084815260200190815260200160002090805190602001906116f4929190611ceb565b505050565b6001816000016000828254019250508190555050565b505050565b60006117358473ffffffffffffffffffffffffffffffffffffffff16611b0a565b156118d6578373ffffffffffffffffffffffffffffffffffffffff1663150b7a0261175e61107e565b8786866040518563ffffffff167c010000000000000000000000000000000000000000000000000000000002815260040161179c94939291906128e0565b602060405180830381600087803b1580156117b657600080fd5b505af19250505080156117e757506040513d601f19601f820116820180604052508101906117e491906120eb565b60015b61186a573d8060008114611817576040519150601f19603f3d011682016040523d82523d6000602084013e61181c565b606091505b50600081511415611862576040517f08c379a000000000000000000000000000000000000000000000000000000000815260040161185990612969565b60405180910390fd5b805181602001fd5b63150b7a027c0100000000000000000000000000000000000000000000000000000000027bffffffffffffffffffffffffffffffffffffffffffffffffffffffff1916817bffffffffffffffffffffffffffffffffffffffffffffffffffffffff1916149150506118db565b600190505b949350505050565b6060600082141561192b576040518060400160405280600181526020017f30000000000000000000000000000000000000000000000000000000000000008152509050611aaa565b600082905060005b6000821461195d57808061194690612e3b565b915050600a826119569190612cee565b9150611933565b60008167ffffffffffffffff81111561199f577f4e487b7100000000000000000000000000000000000000000000000000000000600052604160045260246000fd5b6040519080825280601f01601f1916602001820160405280156119d15781602001600182028036833780820191505090505b5090505b60008514611aa3576001826119ea9190612d1f565b9150600a856119f99190612e84565b6030611a059190612c98565b7f010000000000000000000000000000000000000000000000000000000000000002818381518110611a60577f4e487b7100000000000000000000000000000000000000000000000000000000600052603260045260246000fd5b60200101907effffffffffffffffffffffffffffffffffffffffffffffffffffffffffffff1916908160001a905350600a85611a9c9190612cee565b94506119d5565b8093505050505b919050565b611ab98383611b1d565b611ac66000848484611714565b611b05576040517f08c379a0000000000000000000000000000000000000000000000000000000008152600401611afc90612969565b60405180910390fd5b505050565b600080823b905060008111915050919050565b600073ffffffffffffffffffffffffffffffffffffffff168273ffffffffffffffffffffffffffffffffffffffff161415611b8d576040517f08c379a0000000000000000000000000000000000000000000000000000000008152600401611b8490612aa9565b60405180910390fd5b611b9681611012565b15611bd6576040517f08c379a0000000000000000000000000000000000000000000000000000000008152600401611bcd906129a9565b60405180910390fd5b611be26000838361170f565b6001600360008473ffffffffffffffffffffffffffffffffffffffff1673ffffffffffffffffffffffffffffffffffffffff1681526020019081526020016000206000828254611c329190612c98565b92505081905550816002600083815260200190815260200160002060006101000a81548173ffffffffffffffffffffffffffffffffffffffff021916908373ffffffffffffffffffffffffffffffffffffffff160217905550808273ffffffffffffffffffffffffffffffffffffffff16600073ffffffffffffffffffffffffffffffffffffffff167fddf252ad1be2c89b69c2b068fc378daa952ba7f163c4a11628f55a4df523b3ef60405160405180910390a45050565b828054611cf790612e09565b90600052602060002090601f016020900481019282611d195760008555611d60565b82601f10611d3257805160ff1916838001178555611d60565b82800160010185558215611d60579182015b82811115611d5f578251825591602001919060010190611d44565b5b509050611d6d9190611d71565b5090565b5b80821115611d8a576000816000905550600101611d72565b5090565b6000611da1611d9c84612bf5565b612bc4565b905082815260208101848484011115611db957600080fd5b611dc4848285612dc7565b509392505050565b6000611ddf611dda84612c25565b612bc4565b905082815260208101848484011115611df757600080fd5b611e02848285612dc7565b509392505050565b600081359050611e1981612f82565b92915050565b600081359050611e2e81612f99565b92915050565b600081359050611e4381612fb0565b92915050565b600081519050611e5881612fb0565b92915050565b600082601f830112611e6f57600080fd5b8135611e7f848260208601611d8e565b91505092915050565b600082601f830112611e9957600080fd5b8135611ea9848260208601611dcc565b91505092915050565b600081359050611ec181612fc7565b92915050565b600060208284031215611ed957600080fd5b6000611ee784828501611e0a565b91505092915050565b60008060408385031215611f0357600080fd5b6000611f1185828601611e0a565b9250506020611f2285828601611e0a565b9150509250929050565b600080600060608486031215611f4157600080fd5b6000611f4f86828701611e0a565b9350506020611f6086828701611e0a565b9250506040611f7186828701611eb2565b9150509250925092565b60008060008060808587031215611f9157600080fd5b6000611f9f87828801611e0a565b9450506020611fb087828801611e0a565b9350506040611fc187828801611eb2565b925050606085013567ffffffffffffffff811115611fde57600080fd5b611fea87828801611e5e565b91505092959194509250565b6000806040838503121561200957600080fd5b600061201785828601611e0a565b925050602061202885828601611e1f565b9150509250929050565b6000806040838503121561204557600080fd5b600061205385828601611e0a565b925050602083013567ffffffffffffffff81111561207057600080fd5b61207c85828601611e88565b9150509250929050565b6000806040838503121561209957600080fd5b60006120a785828601611e0a565b92505060206120b885828601611eb2565b9150509250929050565b6000602082840312156120d457600080fd5b60006120e284828501611e34565b91505092915050565b6000602082840312156120fd57600080fd5b600061210b84828501611e49565b91505092915050565b60006020828403121561212657600080fd5b600061213484828501611eb2565b91505092915050565b61214681612d53565b82525050565b61215581612d65565b82525050565b600061216682612c55565b6121708185612c6b565b9350612180818560208601612dd6565b61218981612f71565b840191505092915050565b600061219f82612c60565b6121a98185612c7c565b93506121b9818560208601612dd6565b6121c281612f71565b840191505092915050565b60006121d882612c60565b6121e28185612c8d565b93506121f2818560208601612dd6565b80840191505092915050565b600061220b603283612c7c565b91507f4552433732313a207472616e7366657220746f206e6f6e20455243373231526560008301527f63656976657220696d706c656d656e74657200000000000000000000000000006020830152604082019050919050565b6000612271602683612c7c565b91507f4f776e61626c653a206e6577206f776e657220697320746865207a65726f206160008301527f64647265737300000000000000000000000000000000000000000000000000006020830152604082019050919050565b60006122d7601c83612c7c565b91507f4552433732313a20746f6b656e20616c7265616479206d696e746564000000006000830152602082019050919050565b6000612317602483612c7c565b91507f4552433732313a207472616e7366657220746f20746865207a65726f2061646460008301527f72657373000000000000000000000000000000000000000000000000000000006020830152604082019050919050565b600061237d601983612c7c565b91507f4552433732313a20617070726f766520746f2063616c6c6572000000000000006000830152602082019050919050565b60006123bd602c83612c7c565b91507f4552433732313a206f70657261746f7220717565727920666f72206e6f6e657860008301527f697374656e7420746f6b656e00000000000000000000000000000000000000006020830152604082019050919050565b6000612423603883612c7c565b91507f4552433732313a20617070726f76652063616c6c6572206973206e6f74206f7760008301527f6e6572206e6f7220617070726f76656420666f7220616c6c00000000000000006020830152604082019050919050565b6000612489602a83612c7c565b91507f4552433732313a2062616c616e636520717565727920666f7220746865207a6560008301527f726f2061646472657373000000000000000000000000000000000000000000006020830152604082019050919050565b60006124ef602983612c7c565b91507f4552433732313a206f776e657220717565727920666f72206e6f6e657869737460008301527f656e7420746f6b656e00000000000000000000000000000000000000000000006020830152604082019050919050565b6000612555602e83612c7c565b91507f45524337323155524953746f726167653a2055524920736574206f66206e6f6e60008301527f6578697374656e7420746f6b656e0000000000000000000000000000000000006020830152604082019050919050565b60006125bb602083612c7c565b91507f4552433732313a206d696e7420746f20746865207a65726f20616464726573736000830152602082019050919050565b60006125fb603183612c7c565b91507f45524337323155524953746f726167653a2055524920717565727920666f722060008301527f6e6f6e6578697374656e7420746f6b656e0000000000000000000000000000006020830152604082019050919050565b6000612661602c83612c7c565b91507f4552433732313a20617070726f76656420717565727920666f72206e6f6e657860008301527f697374656e7420746f6b656e00000000000000000000000000000000000000006020830152604082019050919050565b60006126c7602083612c7c565b91507f4f776e61626c653a2063616c6c6572206973206e6f7420746865206f776e65726000830152602082019050919050565b6000612707602983612c7c565b91507f4552433732313a207472616e73666572206f6620746f6b656e2074686174206960008301527f73206e6f74206f776e00000000000000000000000000000000000000000000006020830152604082019050919050565b600061276d602f83612c7c565b91507f4552433732314d657461646174613a2055524920717565727920666f72206e6f60008301527f6e6578697374656e7420746f6b656e00000000000000000000000000000000006020830152604082019050919050565b60006127d3602183612c7c565b91507f4552433732313a20617070726f76616c20746f2063757272656e74206f776e6560008301527f72000000000000000000000000000000000000000000000000000000000000006020830152604082019050919050565b6000612839603183612c7c565b91507f4552433732313a207472616e736665722063616c6c6572206973206e6f74206f60008301527f776e6572206e6f7220617070726f7665640000000000000000000000000000006020830152604082019050919050565b61289b81612dbd565b82525050565b60006128ad82856121cd565b91506128b982846121cd565b91508190509392505050565b60006020820190506128da600083018461213d565b92915050565b60006080820190506128f5600083018761213d565b612902602083018661213d565b61290f6040830185612892565b8181036060830152612921818461215b565b905095945050505050565b6000602082019050612941600083018461214c565b92915050565b600060208201905081810360008301526129618184612194565b905092915050565b60006020820190508181036000830152612982816121fe565b9050919050565b600060208201905081810360008301526129a281612264565b9050919050565b600060208201905081810360008301526129c2816122ca565b9050919050565b600060208201905081810360008301526129e28161230a565b9050919050565b60006020820190508181036000830152612a0281612370565b9050919050565b60006020820190508181036000830152612a22816123b0565b9050919050565b60006020820190508181036000830152612a4281612416565b9050919050565b60006020820190508181036000830152612a628161247c565b9050919050565b60006020820190508181036000830152612a82816124e2565b9050919050565b60006020820190508181036000830152612aa281612548565b9050919050565b60006020820190508181036000830152612ac2816125ae565b9050919050565b60006020820190508181036000830152612ae2816125ee565b9050919050565b60006020820190508181036000830152612b0281612654565b9050919050565b60006020820190508181036000830152612b22816126ba565b9050919050565b60006020820190508181036000830152612b42816126fa565b9050919050565b60006020820190508181036000830152612b6281612760565b9050919050565b60006020820190508181036000830152612b82816127c6565b9050919050565b60006020820190508181036000830152612ba28161282c565b9050919050565b6000602082019050612bbe6000830184612892565b92915050565b6000604051905081810181811067ffffffffffffffff82111715612beb57612bea612f42565b5b8060405250919050565b600067ffffffffffffffff821115612c1057612c0f612f42565b5b601f19601f8301169050602081019050919050565b600067ffffffffffffffff821115612c4057612c3f612f42565b5b601f19601f8301169050602081019050919050565b600081519050919050565b600081519050919050565b600082825260208201905092915050565b600082825260208201905092915050565b600081905092915050565b6000612ca382612dbd565b9150612cae83612dbd565b9250827fffffffffffffffffffffffffffffffffffffffffffffffffffffffffffffffff03821115612ce357612ce2612eb5565b5b828201905092915050565b6000612cf982612dbd565b9150612d0483612dbd565b925082612d1457612d13612ee4565b5b828204905092915050565b6000612d2a82612dbd565b9150612d3583612dbd565b925082821015612d4857612d47612eb5565b5b828203905092915050565b6000612d5e82612d9d565b9050919050565b60008115159050919050565b60007fffffffff0000000000000000000000000000000000000000000000000000000082169050919050565b600073ffffffffffffffffffffffffffffffffffffffff82169050919050565b6000819050919050565b82818337600083830152505050565b60005b83811015612df4578082015181840152602081019050612dd9565b83811115612e03576000848401525b50505050565b60006002820490506001821680612e2157607f821691505b60208210811415612e3557612e34612f13565b5b50919050565b6000612e4682612dbd565b91507fffffffffffffffffffffffffffffffffffffffffffffffffffffffffffffffff821415612e7957612e78612eb5565b5b600182019050919050565b6000612e8f82612dbd565b9150612e9a83612dbd565b925082612eaa57612ea9612ee4565b5b828206905092915050565b7f4e487b7100000000000000000000000000000000000000000000000000000000600052601160045260246000fd5b7f4e487b7100000000000000000000000000000000000000000000000000000000600052601260045260246000fd5b7f4e487b7100000000000000000000000000000000000000000000000000000000600052602260045260246000fd5b7f4e487b7100000000000000000000000000000000000000000000000000000000600052604160045260246000fd5b6000601f19601f8301169050919050565b612f8b81612d53565b8114612f9657600080fd5b50565b612fa281612d65565b8114612fad57600080fd5b50565b612fb981612d71565b8114612fc457600080fd5b50565b612fd081612dbd565b8114612fdb57600080fd5b5056fe68747470733a2f2f676174657761792e70696e6174612e636c6f75642f697066732f516d524c7246356e4d4d73716b70675757536765504b4e56553270695748537a6a4756484273524b393564696f37a264697066735822122053bc49b8825ed15cefdabdb3a0cc92511b9346ef3058187d246d0996a60eb63e64736f6c63430008000033",
  "immutableReferences": {},
  "source": "// SPDX-License-Identifier: MIT\npragma solidity ^0.8.0;\n\nimport \"../../node_modules/@openzeppelin/contracts/token/ERC721/ERC721.sol\";\n// import \"../../node_modules/@openzeppelin/contracts/token/ERC721/extensions/ERC721Enumerable.sol\";\nimport \"../../node_modules/@openzeppelin/contracts/token/ERC721/extensions/ERC721URIStorage.sol\";\nimport \"../../node_modules/@openzeppelin/contracts/access/Ownable.sol\";\nimport \"../../node_modules/@openzeppelin/contracts/utils/Counters.sol\";\n\ncontract GameItem is ERC721URIStorage, Ownable {\n    using Counters for Counters.Counter;\n\n    uint256 private _cap;\n\n    Counters.Counter private _tokenIdCounter;\n\n    constructor(uint256 cap) ERC721(\"ROSlayers\", \"ROS\") {\n        require(cap > 0, \"ERC721 cap is \");\n        _cap = cap;\n    }\n\n    function contractURI() public pure returns (string memory) {\n        return \"https://gateway.pinata.cloud/ipfs/QmRLrF5nMMsqkpgWWSgePKNVU2piWHSzjGVHBsRK95dio7\";\n    }\n\n    function mint(address to, string memory tokenURI) public onlyOwner {\n        _safeMint(to, _tokenIdCounter.current());\n        _setTokenURI(_tokenIdCounter.current(), tokenURI);\n        _tokenIdCounter.increment();\n        \n    }\n    \n    //get the current supply of tokens\n    function totalSupply() public view returns (uint256) {\n        return _tokenIdCounter.current();\n    }\n\n    // The following functions are overrides required by Solidity.\n\n    // function _beforeTokenTransfer(address from, address to, uint256 tokenId)\n    //     internal\n    //     override(ERC721, ERC721Enumerable)\n    // {\n    //     super._beforeTokenTransfer(from, to, tokenId);\n    // }\n\n    // function _burn(uint256 tokenId) internal override(ERC721, ERC721URIStorage) {\n    //     super._burn(tokenId);\n    // }\n\n    // function tokenURI(uint256 tokenId)\n    //     public\n    //     view\n    //     override(ERC721, ERC721URIStorage)\n    //     returns (string memory)\n    // {\n    //     return super.tokenURI(tokenId);\n    // }\n\n    // function supportsInterface(bytes4 interfaceId)\n    //     public\n    //     view\n    //     override(ERC721, ERC721Enumerable)\n    //     returns (bool)\n    // {\n    //     return super.supportsInterface(interfaceId);\n    // }\n}",
  "sourcePath": "/home/drex/Projects/internship/nft/nft/src/contracts/GameItem.sol",
  "compiler": {
    "name": "solc",
    "version": "0.8.0+commit.c7dfd78e.Emscripten.clang"
  },
  "schemaVersion": "3.4.3",
  "updatedAt": "2021-10-15T18:20:17.633Z",
  "devdoc": {
    "kind": "dev",
    "methods": {
      "approve(address,uint256)": {
        "details": "See {IERC721-approve}."
      },
      "balanceOf(address)": {
        "details": "See {IERC721-balanceOf}."
      },
      "getApproved(uint256)": {
        "details": "See {IERC721-getApproved}."
      },
      "isApprovedForAll(address,address)": {
        "details": "See {IERC721-isApprovedForAll}."
      },
      "name()": {
        "details": "See {IERC721Metadata-name}."
      },
      "owner()": {
        "details": "Returns the address of the current owner."
      },
      "ownerOf(uint256)": {
        "details": "See {IERC721-ownerOf}."
      },
      "renounceOwnership()": {
        "details": "Leaves the contract without owner. It will not be possible to call `onlyOwner` functions anymore. Can only be called by the current owner. NOTE: Renouncing ownership will leave the contract without an owner, thereby removing any functionality that is only available to the owner."
      },
      "safeTransferFrom(address,address,uint256)": {
        "details": "See {IERC721-safeTransferFrom}."
      },
      "safeTransferFrom(address,address,uint256,bytes)": {
        "details": "See {IERC721-safeTransferFrom}."
      },
      "setApprovalForAll(address,bool)": {
        "details": "See {IERC721-setApprovalForAll}."
      },
      "supportsInterface(bytes4)": {
        "details": "See {IERC165-supportsInterface}."
      },
      "symbol()": {
        "details": "See {IERC721Metadata-symbol}."
      },
      "tokenURI(uint256)": {
        "details": "See {IERC721Metadata-tokenURI}."
      },
      "transferFrom(address,address,uint256)": {
        "details": "See {IERC721-transferFrom}."
      },
      "transferOwnership(address)": {
        "details": "Transfers ownership of the contract to a new account (`newOwner`). Can only be called by the current owner."
      }
    },
    "version": 1
  },
  "userdoc": {
    "kind": "user",
    "methods": {},
    "version": 1
  }
}