{
  "contractName": "ROSlayers",
  "abi": [
    {
      "inputs": [
        {
          "internalType": "uint256",
          "name": "cap_",
          "type": "uint256"
        }
      ],
      "stateMutability": "nonpayable",
      "type": "constructor"
    },
    {
      "anonymous": false,
      "inputs": [
        {
          "indexed": true,
          "internalType": "address",
          "name": "owner",
          "type": "address"
        },
        {
          "indexed": true,
          "internalType": "address",
          "name": "approved",
          "type": "address"
        },
        {
          "indexed": true,
          "internalType": "uint256",
          "name": "tokenId",
          "type": "uint256"
        }
      ],
      "name": "Approval",
      "type": "event"
    },
    {
      "anonymous": false,
      "inputs": [
        {
          "indexed": true,
          "internalType": "address",
          "name": "owner",
          "type": "address"
        },
        {
          "indexed": true,
          "internalType": "address",
          "name": "operator",
          "type": "address"
        },
        {
          "indexed": false,
          "internalType": "bool",
          "name": "approved",
          "type": "bool"
        }
      ],
      "name": "ApprovalForAll",
      "type": "event"
    },
    {
      "anonymous": false,
      "inputs": [
        {
          "indexed": true,
          "internalType": "address",
          "name": "previousOwner",
          "type": "address"
        },
        {
          "indexed": true,
          "internalType": "address",
          "name": "newOwner",
          "type": "address"
        }
      ],
      "name": "OwnershipTransferred",
      "type": "event"
    },
    {
      "anonymous": false,
      "inputs": [
        {
          "indexed": true,
          "internalType": "address",
          "name": "from",
          "type": "address"
        },
        {
          "indexed": true,
          "internalType": "address",
          "name": "to",
          "type": "address"
        },
        {
          "indexed": true,
          "internalType": "uint256",
          "name": "tokenId",
          "type": "uint256"
        }
      ],
      "name": "Transfer",
      "type": "event"
    },
    {
      "inputs": [
        {
          "internalType": "address",
          "name": "to",
          "type": "address"
        },
        {
          "internalType": "uint256",
          "name": "tokenId",
          "type": "uint256"
        }
      ],
      "name": "approve",
      "outputs": [],
      "stateMutability": "nonpayable",
      "type": "function"
    },
    {
      "inputs": [
        {
          "internalType": "address",
          "name": "owner",
          "type": "address"
        }
      ],
      "name": "balanceOf",
      "outputs": [
        {
          "internalType": "uint256",
          "name": "",
          "type": "uint256"
        }
      ],
      "stateMutability": "view",
      "type": "function"
    },
    {
      "inputs": [
        {
          "internalType": "uint256",
          "name": "tokenId",
          "type": "uint256"
        }
      ],
      "name": "getApproved",
      "outputs": [
        {
          "internalType": "address",
          "name": "",
          "type": "address"
        }
      ],
      "stateMutability": "view",
      "type": "function"
    },
    {
      "inputs": [
        {
          "internalType": "address",
          "name": "owner",
          "type": "address"
        },
        {
          "internalType": "address",
          "name": "operator",
          "type": "address"
        }
      ],
      "name": "isApprovedForAll",
      "outputs": [
        {
          "internalType": "bool",
          "name": "",
          "type": "bool"
        }
      ],
      "stateMutability": "view",
      "type": "function"
    },
    {
      "inputs": [],
      "name": "name",
      "outputs": [
        {
          "internalType": "string",
          "name": "",
          "type": "string"
        }
      ],
      "stateMutability": "view",
      "type": "function"
    },
    {
      "inputs": [],
      "name": "owner",
      "outputs": [
        {
          "internalType": "address",
          "name": "",
          "type": "address"
        }
      ],
      "stateMutability": "view",
      "type": "function"
    },
    {
      "inputs": [
        {
          "internalType": "uint256",
          "name": "tokenId",
          "type": "uint256"
        }
      ],
      "name": "ownerOf",
      "outputs": [
        {
          "internalType": "address",
          "name": "",
          "type": "address"
        }
      ],
      "stateMutability": "view",
      "type": "function"
    },
    {
      "inputs": [],
      "name": "renounceOwnership",
      "outputs": [],
      "stateMutability": "nonpayable",
      "type": "function"
    },
    {
      "inputs": [
        {
          "internalType": "address",
          "name": "from",
          "type": "address"
        },
        {
          "internalType": "address",
          "name": "to",
          "type": "address"
        },
        {
          "internalType": "uint256",
          "name": "tokenId",
          "type": "uint256"
        }
      ],
      "name": "safeTransferFrom",
      "outputs": [],
      "stateMutability": "nonpayable",
      "type": "function"
    },
    {
      "inputs": [
        {
          "internalType": "address",
          "name": "from",
          "type": "address"
        },
        {
          "internalType": "address",
          "name": "to",
          "type": "address"
        },
        {
          "internalType": "uint256",
          "name": "tokenId",
          "type": "uint256"
        },
        {
          "internalType": "bytes",
          "name": "_data",
          "type": "bytes"
        }
      ],
      "name": "safeTransferFrom",
      "outputs": [],
      "stateMutability": "nonpayable",
      "type": "function"
    },
    {
      "inputs": [
        {
          "internalType": "address",
          "name": "operator",
          "type": "address"
        },
        {
          "internalType": "bool",
          "name": "approved",
          "type": "bool"
        }
      ],
      "name": "setApprovalForAll",
      "outputs": [],
      "stateMutability": "nonpayable",
      "type": "function"
    },
    {
      "inputs": [
        {
          "internalType": "bytes4",
          "name": "interfaceId",
          "type": "bytes4"
        }
      ],
      "name": "supportsInterface",
      "outputs": [
        {
          "internalType": "bool",
          "name": "",
          "type": "bool"
        }
      ],
      "stateMutability": "view",
      "type": "function"
    },
    {
      "inputs": [],
      "name": "symbol",
      "outputs": [
        {
          "internalType": "string",
          "name": "",
          "type": "string"
        }
      ],
      "stateMutability": "view",
      "type": "function"
    },
    {
      "inputs": [
        {
          "internalType": "uint256",
          "name": "tokenId",
          "type": "uint256"
        }
      ],
      "name": "tokenURI",
      "outputs": [
        {
          "internalType": "string",
          "name": "",
          "type": "string"
        }
      ],
      "stateMutability": "view",
      "type": "function"
    },
    {
      "inputs": [
        {
          "internalType": "address",
          "name": "from",
          "type": "address"
        },
        {
          "internalType": "address",
          "name": "to",
          "type": "address"
        },
        {
          "internalType": "uint256",
          "name": "tokenId",
          "type": "uint256"
        }
      ],
      "name": "transferFrom",
      "outputs": [],
      "stateMutability": "nonpayable",
      "type": "function"
    },
    {
      "inputs": [
        {
          "internalType": "address",
          "name": "newOwner",
          "type": "address"
        }
      ],
      "name": "transferOwnership",
      "outputs": [],
      "stateMutability": "nonpayable",
      "type": "function"
    },
    {
      "inputs": [],
      "name": "cap",
      "outputs": [
        {
          "internalType": "uint256",
          "name": "",
          "type": "uint256"
        }
      ],
      "stateMutability": "view",
      "type": "function"
    },
    {
      "inputs": [],
      "name": "contractURI",
      "outputs": [
        {
          "internalType": "string",
          "name": "",
          "type": "string"
        }
      ],
      "stateMutability": "pure",
      "type": "function"
    },
    {
      "inputs": [
        {
          "internalType": "address",
          "name": "to",
          "type": "address"
        },
        {
          "internalType": "string",
          "name": "tokenURI",
          "type": "string"
        }
      ],
      "name": "mint",
      "outputs": [],
      "stateMutability": "nonpayable",
      "type": "function"
    },
    {
      "inputs": [],
      "name": "totalSupply",
      "outputs": [
        {
          "internalType": "uint256",
          "name": "",
          "type": "uint256"
        }
      ],
      "stateMutability": "view",
      "type": "function"
    }
  ],
  "bytecode": "0x60a06040523480156200001157600080fd5b506040516200359f3803806200359f8339818101604052810190620000379190620002f3565b6040518060400160405280600981526020017f524f536c617965727300000000000000000000000000000000000000000000008152506040518060400160405280600381526020017f524f5300000000000000000000000000000000000000000000000000000000008152508160009080519060200190620000bb9291906200022c565b508060019080519060200190620000d49291906200022c565b50505062000109620000f46200015e640100000000026401000000009004565b62000166640100000000026401000000009004565b600081116200014f576040517f08c379a0000000000000000000000000000000000000000000000000000000008152600401620001469062000361565b60405180910390fd5b8060808181525050506200041d565b600033905090565b6000600760009054906101000a900473ffffffffffffffffffffffffffffffffffffffff16905081600760006101000a81548173ffffffffffffffffffffffffffffffffffffffff021916908373ffffffffffffffffffffffffffffffffffffffff1602179055508173ffffffffffffffffffffffffffffffffffffffff168173ffffffffffffffffffffffffffffffffffffffff167f8be0079c531659141344cd1fd0a4f28419497f9722a3daafe3b4186f6b6457e060405160405180910390a35050565b8280546200023a906200039e565b90600052602060002090601f0160209004810192826200025e5760008555620002aa565b82601f106200027957805160ff1916838001178555620002aa565b82800160010185558215620002aa579182015b82811115620002a95782518255916020019190600101906200028c565b5b509050620002b99190620002bd565b5090565b5b80821115620002d8576000816000905550600101620002be565b5090565b600081519050620002ed8162000403565b92915050565b6000602082840312156200030657600080fd5b60006200031684828501620002dc565b91505092915050565b60006200032e600f8362000383565b91507f45524337323120636170206973203000000000000000000000000000000000006000830152602082019050919050565b600060208201905081810360008301526200037c816200031f565b9050919050565b600082825260208201905092915050565b6000819050919050565b60006002820490506001821680620003b757607f821691505b60208210811415620003ce57620003cd620003d4565b5b50919050565b7f4e487b7100000000000000000000000000000000000000000000000000000000600052602260045260246000fd5b6200040e8162000394565b81146200041a57600080fd5b50565b60805161316662000439600039600061077601526131666000f3fe608060405234801561001057600080fd5b5060043610610149576000357c010000000000000000000000000000000000000000000000000000000090048063715018a6116100ca578063c87b56dd1161008e578063c87b56dd1461033a578063d0def5211461036a578063e8a3d48514610386578063e985e9c5146103a4578063f2fde38b146103d457610149565b8063715018a6146102bc5780638da5cb5b146102c657806395d89b41146102e4578063a22cb46514610302578063b88d4fde1461031e57610149565b806323b872dd1161011157806323b872dd14610206578063355274ea1461022257806342842e0e146102405780636352211e1461025c57806370a082311461028c57610149565b806301ffc9a71461014e57806306fdde031461017e578063081812fc1461019c578063095ea7b3146101cc57806318160ddd146101e8575b600080fd5b61016860048036038101906101639190612164565b6103f0565b6040516101759190612a0e565b60405180910390f35b6101866104d2565b6040516101939190612a29565b60405180910390f35b6101b660048036038101906101b191906121b6565b610564565b6040516101c391906129a7565b60405180910390f35b6101e660048036038101906101e19190612128565b6105e9565b005b6101f0610701565b6040516101fd9190612cab565b60405180910390f35b610220600480360381019061021b9190611fce565b610712565b005b61022a610772565b6040516102379190612cab565b60405180910390f35b61025a60048036038101906102559190611fce565b61079a565b005b610276600480360381019061027191906121b6565b6107ba565b60405161028391906129a7565b60405180910390f35b6102a660048036038101906102a19190611f69565b61086c565b6040516102b39190612cab565b60405180910390f35b6102c4610924565b005b6102ce6109ac565b6040516102db91906129a7565b60405180910390f35b6102ec6109d6565b6040516102f99190612a29565b60405180910390f35b61031c60048036038101906103179190612098565b610a68565b005b6103386004803603810190610333919061201d565b610be9565b005b610354600480360381019061034f91906121b6565b610c4b565b6040516103619190612a29565b60405180910390f35b610384600480360381019061037f91906120d4565b610d9d565b005b61038e610e9e565b60405161039b9190612a29565b60405180910390f35b6103be60048036038101906103b99190611f92565b610ebe565b6040516103cb9190612a0e565b60405180910390f35b6103ee60048036038101906103e99190611f69565b610f52565b005b60007f80ac58cd000000000000000000000000000000000000000000000000000000007bffffffffffffffffffffffffffffffffffffffffffffffffffffffff1916827bffffffffffffffffffffffffffffffffffffffffffffffffffffffff191614806104bb57507f5b5e139f000000000000000000000000000000000000000000000000000000007bffffffffffffffffffffffffffffffffffffffffffffffffffffffff1916827bffffffffffffffffffffffffffffffffffffffffffffffffffffffff1916145b806104cb57506104ca8261104a565b5b9050919050565b6060600080546104e190612f0b565b80601f016020809104026020016040519081016040528092919081815260200182805461050d90612f0b565b801561055a5780601f1061052f5761010080835404028352916020019161055a565b820191906000526020600020905b81548152906001019060200180831161053d57829003601f168201915b5050505050905090565b600061056f826110b4565b6105ae576040517f08c379a00000000000000000000000000000000000000000000000000000000081526004016105a590612beb565b60405180910390fd5b6004600083815260200190815260200160002060009054906101000a900473ffffffffffffffffffffffffffffffffffffffff169050919050565b60006105f4826107ba565b90508073ffffffffffffffffffffffffffffffffffffffff168373ffffffffffffffffffffffffffffffffffffffff161415610665576040517f08c379a000000000000000000000000000000000000000000000000000000000815260040161065c90612c6b565b60405180910390fd5b8073ffffffffffffffffffffffffffffffffffffffff16610684611120565b73ffffffffffffffffffffffffffffffffffffffff1614806106b357506106b2816106ad611120565b610ebe565b5b6106f2576040517f08c379a00000000000000000000000000000000000000000000000000000000081526004016106e990612b2b565b60405180910390fd5b6106fc8383611128565b505050565b600061070d60086111e1565b905090565b61072361071d611120565b826111ef565b610762576040517f08c379a000000000000000000000000000000000000000000000000000000000815260040161075990612c8b565b60405180910390fd5b61076d8383836112cd565b505050565b60007f0000000000000000000000000000000000000000000000000000000000000000905090565b6107b583838360405180602001604052806000815250610be9565b505050565b6000806002600084815260200190815260200160002060009054906101000a900473ffffffffffffffffffffffffffffffffffffffff169050600073ffffffffffffffffffffffffffffffffffffffff168173ffffffffffffffffffffffffffffffffffffffff161415610863576040517f08c379a000000000000000000000000000000000000000000000000000000000815260040161085a90612b6b565b60405180910390fd5b80915050919050565b60008073ffffffffffffffffffffffffffffffffffffffff168273ffffffffffffffffffffffffffffffffffffffff1614156108dd576040517f08c379a00000000000000000000000000000000000000000000000000000000081526004016108d490612b4b565b60405180910390fd5b600360008373ffffffffffffffffffffffffffffffffffffffff1673ffffffffffffffffffffffffffffffffffffffff168152602001908152602001600020549050919050565b61092c611120565b73ffffffffffffffffffffffffffffffffffffffff1661094a6109ac565b73ffffffffffffffffffffffffffffffffffffffff16146109a0576040517f08c379a000000000000000000000000000000000000000000000000000000000815260040161099790612c0b565b60405180910390fd5b6109aa6000611529565b565b6000600760009054906101000a900473ffffffffffffffffffffffffffffffffffffffff16905090565b6060600180546109e590612f0b565b80601f0160208091040260200160405190810160405280929190818152602001828054610a1190612f0b565b8015610a5e5780601f10610a3357610100808354040283529160200191610a5e565b820191906000526020600020905b815481529060010190602001808311610a4157829003601f168201915b5050505050905090565b610a70611120565b73ffffffffffffffffffffffffffffffffffffffff168273ffffffffffffffffffffffffffffffffffffffff161415610ade576040517f08c379a0000000000000000000000000000000000000000000000000000000008152600401610ad590612acb565b60405180910390fd5b8060056000610aeb611120565b73ffffffffffffffffffffffffffffffffffffffff1673ffffffffffffffffffffffffffffffffffffffff16815260200190815260200160002060008473ffffffffffffffffffffffffffffffffffffffff1673ffffffffffffffffffffffffffffffffffffffff16815260200190815260200160002060006101000a81548160ff0219169083151502179055508173ffffffffffffffffffffffffffffffffffffffff16610b98611120565b73ffffffffffffffffffffffffffffffffffffffff167f17307eab39ab6107e8899845ad3d59bd9653f200f220920489ca2b5937696c3183604051610bdd9190612a0e565b60405180910390a35050565b610bfa610bf4611120565b836111ef565b610c39576040517f08c379a0000000000000000000000000000000000000000000000000000000008152600401610c3090612c8b565b60405180910390fd5b610c45848484846115ef565b50505050565b6060610c56826110b4565b610c95576040517f08c379a0000000000000000000000000000000000000000000000000000000008152600401610c8c90612bcb565b60405180910390fd5b6000600660008481526020019081526020016000208054610cb590612f0b565b80601f0160208091040260200160405190810160405280929190818152602001828054610ce190612f0b565b8015610d2e5780601f10610d0357610100808354040283529160200191610d2e565b820191906000526020600020905b815481529060010190602001808311610d1157829003601f168201915b505050505090506000610d3f61164b565b9050600081511415610d55578192505050610d98565b600082511115610d8a578082604051602001610d72929190612983565b60405160208183030381529060405292505050610d98565b610d9384611662565b925050505b919050565b610da5611120565b73ffffffffffffffffffffffffffffffffffffffff16610dc36109ac565b73ffffffffffffffffffffffffffffffffffffffff1614610e19576040517f08c379a0000000000000000000000000000000000000000000000000000000008152600401610e1090612c0b565b60405180910390fd5b610e21610772565b610e29610701565b1115610e6a576040517f08c379a0000000000000000000000000000000000000000000000000000000008152600401610e6190612b0b565b60405180910390fd5b610e746008611709565b610e8782610e8260086111e1565b61171f565b610e9a610e9460086111e1565b8261173d565b5050565b60606040518060800160405280605081526020016130e160509139905090565b6000600560008473ffffffffffffffffffffffffffffffffffffffff1673ffffffffffffffffffffffffffffffffffffffff16815260200190815260200160002060008373ffffffffffffffffffffffffffffffffffffffff1673ffffffffffffffffffffffffffffffffffffffff16815260200190815260200160002060009054906101000a900460ff16905092915050565b610f5a611120565b73ffffffffffffffffffffffffffffffffffffffff16610f786109ac565b73ffffffffffffffffffffffffffffffffffffffff1614610fce576040517f08c379a0000000000000000000000000000000000000000000000000000000008152600401610fc590612c0b565b60405180910390fd5b600073ffffffffffffffffffffffffffffffffffffffff168173ffffffffffffffffffffffffffffffffffffffff16141561103e576040517f08c379a000000000000000000000000000000000000000000000000000000000815260040161103590612a6b565b60405180910390fd5b61104781611529565b50565b60007f01ffc9a7000000000000000000000000000000000000000000000000000000007bffffffffffffffffffffffffffffffffffffffffffffffffffffffff1916827bffffffffffffffffffffffffffffffffffffffffffffffffffffffff1916149050919050565b60008073ffffffffffffffffffffffffffffffffffffffff166002600084815260200190815260200160002060009054906101000a900473ffffffffffffffffffffffffffffffffffffffff1673ffffffffffffffffffffffffffffffffffffffff1614159050919050565b600033905090565b816004600083815260200190815260200160002060006101000a81548173ffffffffffffffffffffffffffffffffffffffff021916908373ffffffffffffffffffffffffffffffffffffffff160217905550808273ffffffffffffffffffffffffffffffffffffffff1661119b836107ba565b73ffffffffffffffffffffffffffffffffffffffff167f8c5be1e5ebec7d5bd14f71427d1e84f3dd0314c0f7b2291e5b200ac8c7c3b92560405160405180910390a45050565b600081600001549050919050565b60006111fa826110b4565b611239576040517f08c379a000000000000000000000000000000000000000000000000000000000815260040161123090612aeb565b60405180910390fd5b6000611244836107ba565b90508073ffffffffffffffffffffffffffffffffffffffff168473ffffffffffffffffffffffffffffffffffffffff1614806112b357508373ffffffffffffffffffffffffffffffffffffffff1661129b84610564565b73ffffffffffffffffffffffffffffffffffffffff16145b806112c457506112c38185610ebe565b5b91505092915050565b8273ffffffffffffffffffffffffffffffffffffffff166112ed826107ba565b73ffffffffffffffffffffffffffffffffffffffff1614611343576040517f08c379a000000000000000000000000000000000000000000000000000000000815260040161133a90612c2b565b60405180910390fd5b600073ffffffffffffffffffffffffffffffffffffffff168273ffffffffffffffffffffffffffffffffffffffff1614156113b3576040517f08c379a00000000000000000000000000000000000000000000000000000000081526004016113aa90612aab565b60405180910390fd5b6113be8383836117b1565b6113c9600082611128565b6001600360008573ffffffffffffffffffffffffffffffffffffffff1673ffffffffffffffffffffffffffffffffffffffff16815260200190815260200160002060008282546114199190612e21565b925050819055506001600360008473ffffffffffffffffffffffffffffffffffffffff1673ffffffffffffffffffffffffffffffffffffffff16815260200190815260200160002060008282546114709190612d9a565b92505081905550816002600083815260200190815260200160002060006101000a81548173ffffffffffffffffffffffffffffffffffffffff021916908373ffffffffffffffffffffffffffffffffffffffff160217905550808273ffffffffffffffffffffffffffffffffffffffff168473ffffffffffffffffffffffffffffffffffffffff167fddf252ad1be2c89b69c2b068fc378daa952ba7f163c4a11628f55a4df523b3ef60405160405180910390a4505050565b6000600760009054906101000a900473ffffffffffffffffffffffffffffffffffffffff16905081600760006101000a81548173ffffffffffffffffffffffffffffffffffffffff021916908373ffffffffffffffffffffffffffffffffffffffff1602179055508173ffffffffffffffffffffffffffffffffffffffff168173ffffffffffffffffffffffffffffffffffffffff167f8be0079c531659141344cd1fd0a4f28419497f9722a3daafe3b4186f6b6457e060405160405180910390a35050565b6115fa8484846112cd565b611606848484846117b6565b611645576040517f08c379a000000000000000000000000000000000000000000000000000000000815260040161163c90612a4b565b60405180910390fd5b50505050565b606060405180602001604052806000815250905090565b606061166d826110b4565b6116ac576040517f08c379a00000000000000000000000000000000000000000000000000000000081526004016116a390612c4b565b60405180910390fd5b60006116b661164b565b905060008151116116d65760405180602001604052806000815250611701565b806116e084611985565b6040516020016116f1929190612983565b6040516020818303038152906040525b915050919050565b6001816000016000828254019250508190555050565b611739828260405180602001604052806000815250611b51565b5050565b611746826110b4565b611785576040517f08c379a000000000000000000000000000000000000000000000000000000000815260040161177c90612b8b565b60405180910390fd5b806006600084815260200190815260200160002090805190602001906117ac929190611d8d565b505050565b505050565b60006117d78473ffffffffffffffffffffffffffffffffffffffff16611bac565b15611978578373ffffffffffffffffffffffffffffffffffffffff1663150b7a02611800611120565b8786866040518563ffffffff167c010000000000000000000000000000000000000000000000000000000002815260040161183e94939291906129c2565b602060405180830381600087803b15801561185857600080fd5b505af192505050801561188957506040513d601f19601f82011682018060405250810190611886919061218d565b60015b61190c573d80600081146118b9576040519150601f19603f3d011682016040523d82523d6000602084013e6118be565b606091505b50600081511415611904576040517f08c379a00000000000000000000000000000000000000000000000000000000081526004016118fb90612a4b565b60405180910390fd5b805181602001fd5b63150b7a027c0100000000000000000000000000000000000000000000000000000000027bffffffffffffffffffffffffffffffffffffffffffffffffffffffff1916817bffffffffffffffffffffffffffffffffffffffffffffffffffffffff19161491505061197d565b600190505b949350505050565b606060008214156119cd576040518060400160405280600181526020017f30000000000000000000000000000000000000000000000000000000000000008152509050611b4c565b600082905060005b600082146119ff5780806119e890612f3d565b915050600a826119f89190612df0565b91506119d5565b60008167ffffffffffffffff811115611a41577f4e487b7100000000000000000000000000000000000000000000000000000000600052604160045260246000fd5b6040519080825280601f01601f191660200182016040528015611a735781602001600182028036833780820191505090505b5090505b60008514611b4557600182611a8c9190612e21565b9150600a85611a9b9190612f86565b6030611aa79190612d9a565b7f010000000000000000000000000000000000000000000000000000000000000002818381518110611b02577f4e487b7100000000000000000000000000000000000000000000000000000000600052603260045260246000fd5b60200101907effffffffffffffffffffffffffffffffffffffffffffffffffffffffffffff1916908160001a905350600a85611b3e9190612df0565b9450611a77565b8093505050505b919050565b611b5b8383611bbf565b611b6860008484846117b6565b611ba7576040517f08c379a0000000000000000000000000000000000000000000000000000000008152600401611b9e90612a4b565b60405180910390fd5b505050565b600080823b905060008111915050919050565b600073ffffffffffffffffffffffffffffffffffffffff168273ffffffffffffffffffffffffffffffffffffffff161415611c2f576040517f08c379a0000000000000000000000000000000000000000000000000000000008152600401611c2690612bab565b60405180910390fd5b611c38816110b4565b15611c78576040517f08c379a0000000000000000000000000000000000000000000000000000000008152600401611c6f90612a8b565b60405180910390fd5b611c84600083836117b1565b6001600360008473ffffffffffffffffffffffffffffffffffffffff1673ffffffffffffffffffffffffffffffffffffffff1681526020019081526020016000206000828254611cd49190612d9a565b92505081905550816002600083815260200190815260200160002060006101000a81548173ffffffffffffffffffffffffffffffffffffffff021916908373ffffffffffffffffffffffffffffffffffffffff160217905550808273ffffffffffffffffffffffffffffffffffffffff16600073ffffffffffffffffffffffffffffffffffffffff167fddf252ad1be2c89b69c2b068fc378daa952ba7f163c4a11628f55a4df523b3ef60405160405180910390a45050565b828054611d9990612f0b565b90600052602060002090601f016020900481019282611dbb5760008555611e02565b82601f10611dd457805160ff1916838001178555611e02565b82800160010185558215611e02579182015b82811115611e01578251825591602001919060010190611de6565b5b509050611e0f9190611e13565b5090565b5b80821115611e2c576000816000905550600101611e14565b5090565b6000611e43611e3e84612cf7565b612cc6565b905082815260208101848484011115611e5b57600080fd5b611e66848285612ec9565b509392505050565b6000611e81611e7c84612d27565b612cc6565b905082815260208101848484011115611e9957600080fd5b611ea4848285612ec9565b509392505050565b600081359050611ebb81613084565b92915050565b600081359050611ed08161309b565b92915050565b600081359050611ee5816130b2565b92915050565b600081519050611efa816130b2565b92915050565b600082601f830112611f1157600080fd5b8135611f21848260208601611e30565b91505092915050565b600082601f830112611f3b57600080fd5b8135611f4b848260208601611e6e565b91505092915050565b600081359050611f63816130c9565b92915050565b600060208284031215611f7b57600080fd5b6000611f8984828501611eac565b91505092915050565b60008060408385031215611fa557600080fd5b6000611fb385828601611eac565b9250506020611fc485828601611eac565b9150509250929050565b600080600060608486031215611fe357600080fd5b6000611ff186828701611eac565b935050602061200286828701611eac565b925050604061201386828701611f54565b9150509250925092565b6000806000806080858703121561203357600080fd5b600061204187828801611eac565b945050602061205287828801611eac565b935050604061206387828801611f54565b925050606085013567ffffffffffffffff81111561208057600080fd5b61208c87828801611f00565b91505092959194509250565b600080604083850312156120ab57600080fd5b60006120b985828601611eac565b92505060206120ca85828601611ec1565b9150509250929050565b600080604083850312156120e757600080fd5b60006120f585828601611eac565b925050602083013567ffffffffffffffff81111561211257600080fd5b61211e85828601611f2a565b9150509250929050565b6000806040838503121561213b57600080fd5b600061214985828601611eac565b925050602061215a85828601611f54565b9150509250929050565b60006020828403121561217657600080fd5b600061218484828501611ed6565b91505092915050565b60006020828403121561219f57600080fd5b60006121ad84828501611eeb565b91505092915050565b6000602082840312156121c857600080fd5b60006121d684828501611f54565b91505092915050565b6121e881612e55565b82525050565b6121f781612e67565b82525050565b600061220882612d57565b6122128185612d6d565b9350612222818560208601612ed8565b61222b81613073565b840191505092915050565b600061224182612d62565b61224b8185612d7e565b935061225b818560208601612ed8565b61226481613073565b840191505092915050565b600061227a82612d62565b6122848185612d8f565b9350612294818560208601612ed8565b80840191505092915050565b60006122ad603283612d7e565b91507f4552433732313a207472616e7366657220746f206e6f6e20455243373231526560008301527f63656976657220696d706c656d656e74657200000000000000000000000000006020830152604082019050919050565b6000612313602683612d7e565b91507f4f776e61626c653a206e6577206f776e657220697320746865207a65726f206160008301527f64647265737300000000000000000000000000000000000000000000000000006020830152604082019050919050565b6000612379601c83612d7e565b91507f4552433732313a20746f6b656e20616c7265616479206d696e746564000000006000830152602082019050919050565b60006123b9602483612d7e565b91507f4552433732313a207472616e7366657220746f20746865207a65726f2061646460008301527f72657373000000000000000000000000000000000000000000000000000000006020830152604082019050919050565b600061241f601983612d7e565b91507f4552433732313a20617070726f766520746f2063616c6c6572000000000000006000830152602082019050919050565b600061245f602c83612d7e565b91507f4552433732313a206f70657261746f7220717565727920666f72206e6f6e657860008301527f697374656e7420746f6b656e00000000000000000000000000000000000000006020830152604082019050919050565b60006124c5601783612d7e565b91507f455243373231204361703a2063617020726561636865640000000000000000006000830152602082019050919050565b6000612505603883612d7e565b91507f4552433732313a20617070726f76652063616c6c6572206973206e6f74206f7760008301527f6e6572206e6f7220617070726f76656420666f7220616c6c00000000000000006020830152604082019050919050565b600061256b602a83612d7e565b91507f4552433732313a2062616c616e636520717565727920666f7220746865207a6560008301527f726f2061646472657373000000000000000000000000000000000000000000006020830152604082019050919050565b60006125d1602983612d7e565b91507f4552433732313a206f776e657220717565727920666f72206e6f6e657869737460008301527f656e7420746f6b656e00000000000000000000000000000000000000000000006020830152604082019050919050565b6000612637602e83612d7e565b91507f45524337323155524953746f726167653a2055524920736574206f66206e6f6e60008301527f6578697374656e7420746f6b656e0000000000000000000000000000000000006020830152604082019050919050565b600061269d602083612d7e565b91507f4552433732313a206d696e7420746f20746865207a65726f20616464726573736000830152602082019050919050565b60006126dd603183612d7e565b91507f45524337323155524953746f726167653a2055524920717565727920666f722060008301527f6e6f6e6578697374656e7420746f6b656e0000000000000000000000000000006020830152604082019050919050565b6000612743602c83612d7e565b91507f4552433732313a20617070726f76656420717565727920666f72206e6f6e657860008301527f697374656e7420746f6b656e00000000000000000000000000000000000000006020830152604082019050919050565b60006127a9602083612d7e565b91507f4f776e61626c653a2063616c6c6572206973206e6f7420746865206f776e65726000830152602082019050919050565b60006127e9602983612d7e565b91507f4552433732313a207472616e73666572206f6620746f6b656e2074686174206960008301527f73206e6f74206f776e00000000000000000000000000000000000000000000006020830152604082019050919050565b600061284f602f83612d7e565b91507f4552433732314d657461646174613a2055524920717565727920666f72206e6f60008301527f6e6578697374656e7420746f6b656e00000000000000000000000000000000006020830152604082019050919050565b60006128b5602183612d7e565b91507f4552433732313a20617070726f76616c20746f2063757272656e74206f776e6560008301527f72000000000000000000000000000000000000000000000000000000000000006020830152604082019050919050565b600061291b603183612d7e565b91507f4552433732313a207472616e736665722063616c6c6572206973206e6f74206f60008301527f776e6572206e6f7220617070726f7665640000000000000000000000000000006020830152604082019050919050565b61297d81612ebf565b82525050565b600061298f828561226f565b915061299b828461226f565b91508190509392505050565b60006020820190506129bc60008301846121df565b92915050565b60006080820190506129d760008301876121df565b6129e460208301866121df565b6129f16040830185612974565b8181036060830152612a0381846121fd565b905095945050505050565b6000602082019050612a2360008301846121ee565b92915050565b60006020820190508181036000830152612a438184612236565b905092915050565b60006020820190508181036000830152612a64816122a0565b9050919050565b60006020820190508181036000830152612a8481612306565b9050919050565b60006020820190508181036000830152612aa48161236c565b9050919050565b60006020820190508181036000830152612ac4816123ac565b9050919050565b60006020820190508181036000830152612ae481612412565b9050919050565b60006020820190508181036000830152612b0481612452565b9050919050565b60006020820190508181036000830152612b24816124b8565b9050919050565b60006020820190508181036000830152612b44816124f8565b9050919050565b60006020820190508181036000830152612b648161255e565b9050919050565b60006020820190508181036000830152612b84816125c4565b9050919050565b60006020820190508181036000830152612ba48161262a565b9050919050565b60006020820190508181036000830152612bc481612690565b9050919050565b60006020820190508181036000830152612be4816126d0565b9050919050565b60006020820190508181036000830152612c0481612736565b9050919050565b60006020820190508181036000830152612c248161279c565b9050919050565b60006020820190508181036000830152612c44816127dc565b9050919050565b60006020820190508181036000830152612c6481612842565b9050919050565b60006020820190508181036000830152612c84816128a8565b9050919050565b60006020820190508181036000830152612ca48161290e565b9050919050565b6000602082019050612cc06000830184612974565b92915050565b6000604051905081810181811067ffffffffffffffff82111715612ced57612cec613044565b5b8060405250919050565b600067ffffffffffffffff821115612d1257612d11613044565b5b601f19601f8301169050602081019050919050565b600067ffffffffffffffff821115612d4257612d41613044565b5b601f19601f8301169050602081019050919050565b600081519050919050565b600081519050919050565b600082825260208201905092915050565b600082825260208201905092915050565b600081905092915050565b6000612da582612ebf565b9150612db083612ebf565b9250827fffffffffffffffffffffffffffffffffffffffffffffffffffffffffffffffff03821115612de557612de4612fb7565b5b828201905092915050565b6000612dfb82612ebf565b9150612e0683612ebf565b925082612e1657612e15612fe6565b5b828204905092915050565b6000612e2c82612ebf565b9150612e3783612ebf565b925082821015612e4a57612e49612fb7565b5b828203905092915050565b6000612e6082612e9f565b9050919050565b60008115159050919050565b60007fffffffff0000000000000000000000000000000000000000000000000000000082169050919050565b600073ffffffffffffffffffffffffffffffffffffffff82169050919050565b6000819050919050565b82818337600083830152505050565b60005b83811015612ef6578082015181840152602081019050612edb565b83811115612f05576000848401525b50505050565b60006002820490506001821680612f2357607f821691505b60208210811415612f3757612f36613015565b5b50919050565b6000612f4882612ebf565b91507fffffffffffffffffffffffffffffffffffffffffffffffffffffffffffffffff821415612f7b57612f7a612fb7565b5b600182019050919050565b6000612f9182612ebf565b9150612f9c83612ebf565b925082612fac57612fab612fe6565b5b828206905092915050565b7f4e487b7100000000000000000000000000000000000000000000000000000000600052601160045260246000fd5b7f4e487b7100000000000000000000000000000000000000000000000000000000600052601260045260246000fd5b7f4e487b7100000000000000000000000000000000000000000000000000000000600052602260045260246000fd5b7f4e487b7100000000000000000000000000000000000000000000000000000000600052604160045260246000fd5b6000601f19601f8301169050919050565b61308d81612e55565b811461309857600080fd5b50565b6130a481612e67565b81146130af57600080fd5b50565b6130bb81612e73565b81146130c657600080fd5b50565b6130d281612ebf565b81146130dd57600080fd5b5056fe68747470733a2f2f676174657761792e70696e6174612e636c6f75642f697066732f516d524c7246356e4d4d73716b70675757536765504b4e56553270695748537a6a4756484273524b393564696f37a2646970667358221220c0951568e1c01af6a1077129bfa6ed594b14a7797edbb83ddd06b6149269ae1d64736f6c63430008000033",
  "immutableReferences": {
    "1977": [
      {
        "length": 32,
        "start": 1910
      }
    ]
  },
  "source": "// SPDX-License-Identifier: MIT\npragma solidity ^0.8.0;\n\nimport \"../../node_modules/@openzeppelin/contracts/token/ERC721/ERC721.sol\";\n// import \"../../node_modules/@openzeppelin/contracts/token/ERC721/extensions/ERC721Enumerable.sol\";\nimport \"../../node_modules/@openzeppelin/contracts/token/ERC721/extensions/ERC721URIStorage.sol\";\nimport \"../../node_modules/@openzeppelin/contracts/access/Ownable.sol\";\nimport \"../../node_modules/@openzeppelin/contracts/utils/Counters.sol\";\n\ncontract ROSlayers is ERC721URIStorage, Ownable {\n    using Counters for Counters.Counter;\n    uint256 private immutable _cap;\n\n    Counters.Counter private _tokenIdCounter;\n\n    constructor(uint256 cap_) ERC721(\"ROSlayers\", \"ROS\") {\n        require(cap_ > 0, \"ERC721 cap is 0\");\n        _cap = cap_;\n    }\n    \n    function cap() public view virtual returns (uint256) {\n        return _cap;\n    }\n    \n    \n    \n    function contractURI() public pure returns (string memory) {\n        return \"https://gateway.pinata.cloud/ipfs/QmRLrF5nMMsqkpgWWSgePKNVU2piWHSzjGVHBsRK95dio7\";\n    }\n\n    function mint(address to, string memory tokenURI) public onlyOwner {\n        require(totalSupply() <= cap(), \"ERC721 Cap: cap reached\");\n        _tokenIdCounter.increment();\n        _safeMint(to, _tokenIdCounter.current());\n        _setTokenURI(_tokenIdCounter.current(), tokenURI);\n        \n        \n    }\n    \n    //get the current supply of tokens\n    function totalSupply() public view returns (uint256) {\n        return _tokenIdCounter.current();\n    }\n\n    \n}",
  "sourcePath": "/home/drex/Projects/internship/nft/nft/src/contracts/SlayerBadge.sol",
  "compiler": {
    "name": "solc",
    "version": "0.8.0+commit.c7dfd78e.Emscripten.clang"
  },
  "schemaVersion": "3.4.3",
  "updatedAt": "2021-10-15T18:20:17.794Z",
  "devdoc": {
    "kind": "dev",
    "methods": {
      "approve(address,uint256)": {
        "details": "See {IERC721-approve}."
      },
      "balanceOf(address)": {
        "details": "See {IERC721-balanceOf}."
      },
      "getApproved(uint256)": {
        "details": "See {IERC721-getApproved}."
      },
      "isApprovedForAll(address,address)": {
        "details": "See {IERC721-isApprovedForAll}."
      },
      "name()": {
        "details": "See {IERC721Metadata-name}."
      },
      "owner()": {
        "details": "Returns the address of the current owner."
      },
      "ownerOf(uint256)": {
        "details": "See {IERC721-ownerOf}."
      },
      "renounceOwnership()": {
        "details": "Leaves the contract without owner. It will not be possible to call `onlyOwner` functions anymore. Can only be called by the current owner. NOTE: Renouncing ownership will leave the contract without an owner, thereby removing any functionality that is only available to the owner."
      },
      "safeTransferFrom(address,address,uint256)": {
        "details": "See {IERC721-safeTransferFrom}."
      },
      "safeTransferFrom(address,address,uint256,bytes)": {
        "details": "See {IERC721-safeTransferFrom}."
      },
      "setApprovalForAll(address,bool)": {
        "details": "See {IERC721-setApprovalForAll}."
      },
      "supportsInterface(bytes4)": {
        "details": "See {IERC165-supportsInterface}."
      },
      "symbol()": {
        "details": "See {IERC721Metadata-symbol}."
      },
      "tokenURI(uint256)": {
        "details": "See {IERC721Metadata-tokenURI}."
      },
      "transferFrom(address,address,uint256)": {
        "details": "See {IERC721-transferFrom}."
      },
      "transferOwnership(address)": {
        "details": "Transfers ownership of the contract to a new account (`newOwner`). Can only be called by the current owner."
      }
    },
    "version": 1
  },
  "userdoc": {
    "kind": "user",
    "methods": {},
    "version": 1
  }
}