{
  "contractName": "SlayerBadge",
  "abi": [
    {
      "inputs": [
        {
          "internalType": "uint256",
          "name": "cap_",
          "type": "uint256"
        }
      ],
      "stateMutability": "nonpayable",
      "type": "constructor"
    },
    {
      "anonymous": false,
      "inputs": [
        {
          "indexed": true,
          "internalType": "address",
          "name": "owner",
          "type": "address"
        },
        {
          "indexed": true,
          "internalType": "address",
          "name": "approved",
          "type": "address"
        },
        {
          "indexed": true,
          "internalType": "uint256",
          "name": "tokenId",
          "type": "uint256"
        }
      ],
      "name": "Approval",
      "type": "event"
    },
    {
      "anonymous": false,
      "inputs": [
        {
          "indexed": true,
          "internalType": "address",
          "name": "owner",
          "type": "address"
        },
        {
          "indexed": true,
          "internalType": "address",
          "name": "operator",
          "type": "address"
        },
        {
          "indexed": false,
          "internalType": "bool",
          "name": "approved",
          "type": "bool"
        }
      ],
      "name": "ApprovalForAll",
      "type": "event"
    },
    {
      "anonymous": false,
      "inputs": [
        {
          "indexed": true,
          "internalType": "address",
          "name": "previousOwner",
          "type": "address"
        },
        {
          "indexed": true,
          "internalType": "address",
          "name": "newOwner",
          "type": "address"
        }
      ],
      "name": "OwnershipTransferred",
      "type": "event"
    },
    {
      "anonymous": false,
      "inputs": [
        {
          "indexed": true,
          "internalType": "address",
          "name": "from",
          "type": "address"
        },
        {
          "indexed": true,
          "internalType": "address",
          "name": "to",
          "type": "address"
        },
        {
          "indexed": true,
          "internalType": "uint256",
          "name": "tokenId",
          "type": "uint256"
        }
      ],
      "name": "Transfer",
      "type": "event"
    },
    {
      "stateMutability": "payable",
      "type": "fallback"
    },
    {
      "inputs": [
        {
          "internalType": "address",
          "name": "to",
          "type": "address"
        },
        {
          "internalType": "uint256",
          "name": "tokenId",
          "type": "uint256"
        }
      ],
      "name": "approve",
      "outputs": [],
      "stateMutability": "nonpayable",
      "type": "function"
    },
    {
      "inputs": [
        {
          "internalType": "address",
          "name": "owner",
          "type": "address"
        }
      ],
      "name": "balanceOf",
      "outputs": [
        {
          "internalType": "uint256",
          "name": "",
          "type": "uint256"
        }
      ],
      "stateMutability": "view",
      "type": "function"
    },
    {
      "inputs": [
        {
          "internalType": "uint256",
          "name": "tokenId",
          "type": "uint256"
        }
      ],
      "name": "getApproved",
      "outputs": [
        {
          "internalType": "address",
          "name": "",
          "type": "address"
        }
      ],
      "stateMutability": "view",
      "type": "function"
    },
    {
      "inputs": [
        {
          "internalType": "address",
          "name": "owner",
          "type": "address"
        },
        {
          "internalType": "address",
          "name": "operator",
          "type": "address"
        }
      ],
      "name": "isApprovedForAll",
      "outputs": [
        {
          "internalType": "bool",
          "name": "",
          "type": "bool"
        }
      ],
      "stateMutability": "view",
      "type": "function"
    },
    {
      "inputs": [],
      "name": "name",
      "outputs": [
        {
          "internalType": "string",
          "name": "",
          "type": "string"
        }
      ],
      "stateMutability": "view",
      "type": "function"
    },
    {
      "inputs": [],
      "name": "owner",
      "outputs": [
        {
          "internalType": "address",
          "name": "",
          "type": "address"
        }
      ],
      "stateMutability": "view",
      "type": "function"
    },
    {
      "inputs": [
        {
          "internalType": "uint256",
          "name": "tokenId",
          "type": "uint256"
        }
      ],
      "name": "ownerOf",
      "outputs": [
        {
          "internalType": "address",
          "name": "",
          "type": "address"
        }
      ],
      "stateMutability": "view",
      "type": "function"
    },
    {
      "inputs": [],
      "name": "renounceOwnership",
      "outputs": [],
      "stateMutability": "nonpayable",
      "type": "function"
    },
    {
      "inputs": [
        {
          "internalType": "address",
          "name": "from",
          "type": "address"
        },
        {
          "internalType": "address",
          "name": "to",
          "type": "address"
        },
        {
          "internalType": "uint256",
          "name": "tokenId",
          "type": "uint256"
        }
      ],
      "name": "safeTransferFrom",
      "outputs": [],
      "stateMutability": "nonpayable",
      "type": "function"
    },
    {
      "inputs": [
        {
          "internalType": "address",
          "name": "from",
          "type": "address"
        },
        {
          "internalType": "address",
          "name": "to",
          "type": "address"
        },
        {
          "internalType": "uint256",
          "name": "tokenId",
          "type": "uint256"
        },
        {
          "internalType": "bytes",
          "name": "_data",
          "type": "bytes"
        }
      ],
      "name": "safeTransferFrom",
      "outputs": [],
      "stateMutability": "nonpayable",
      "type": "function"
    },
    {
      "inputs": [
        {
          "internalType": "address",
          "name": "operator",
          "type": "address"
        },
        {
          "internalType": "bool",
          "name": "approved",
          "type": "bool"
        }
      ],
      "name": "setApprovalForAll",
      "outputs": [],
      "stateMutability": "nonpayable",
      "type": "function"
    },
    {
      "inputs": [
        {
          "internalType": "bytes4",
          "name": "interfaceId",
          "type": "bytes4"
        }
      ],
      "name": "supportsInterface",
      "outputs": [
        {
          "internalType": "bool",
          "name": "",
          "type": "bool"
        }
      ],
      "stateMutability": "view",
      "type": "function"
    },
    {
      "inputs": [],
      "name": "symbol",
      "outputs": [
        {
          "internalType": "string",
          "name": "",
          "type": "string"
        }
      ],
      "stateMutability": "view",
      "type": "function"
    },
    {
      "inputs": [
        {
          "internalType": "uint256",
          "name": "tokenId",
          "type": "uint256"
        }
      ],
      "name": "tokenURI",
      "outputs": [
        {
          "internalType": "string",
          "name": "",
          "type": "string"
        }
      ],
      "stateMutability": "view",
      "type": "function"
    },
    {
      "inputs": [
        {
          "internalType": "address",
          "name": "from",
          "type": "address"
        },
        {
          "internalType": "address",
          "name": "to",
          "type": "address"
        },
        {
          "internalType": "uint256",
          "name": "tokenId",
          "type": "uint256"
        }
      ],
      "name": "transferFrom",
      "outputs": [],
      "stateMutability": "nonpayable",
      "type": "function"
    },
    {
      "inputs": [
        {
          "internalType": "address",
          "name": "newOwner",
          "type": "address"
        }
      ],
      "name": "transferOwnership",
      "outputs": [],
      "stateMutability": "nonpayable",
      "type": "function"
    },
    {
      "stateMutability": "payable",
      "type": "receive"
    },
    {
      "inputs": [],
      "name": "cap",
      "outputs": [
        {
          "internalType": "uint256",
          "name": "",
          "type": "uint256"
        }
      ],
      "stateMutability": "view",
      "type": "function"
    },
    {
      "inputs": [],
      "name": "contractURI",
      "outputs": [
        {
          "internalType": "string",
          "name": "",
          "type": "string"
        }
      ],
      "stateMutability": "pure",
      "type": "function"
    },
    {
      "inputs": [
        {
          "internalType": "address",
          "name": "to",
          "type": "address"
        },
        {
          "internalType": "string",
          "name": "tokenURI",
          "type": "string"
        }
      ],
      "name": "mint",
      "outputs": [],
      "stateMutability": "payable",
      "type": "function"
    },
    {
      "inputs": [],
      "name": "totalSupply",
      "outputs": [
        {
          "internalType": "uint256",
          "name": "",
          "type": "uint256"
        }
      ],
      "stateMutability": "view",
      "type": "function"
    },
    {
      "inputs": [
        {
          "internalType": "address payable",
          "name": "to",
          "type": "address"
        }
      ],
      "name": "transferFunds",
      "outputs": [],
      "stateMutability": "payable",
      "type": "function"
    },
    {
      "inputs": [],
      "name": "getBalance",
      "outputs": [
        {
          "internalType": "uint256",
          "name": "",
          "type": "uint256"
        }
      ],
      "stateMutability": "view",
      "type": "function"
    }
  ],
  "bytecode": "0x60a06040523480156200001157600080fd5b5060405162003991380380620039918339818101604052810190620000379190620002f3565b6040518060400160405280600981526020017f524f536c617965727300000000000000000000000000000000000000000000008152506040518060400160405280600381526020017f524f5300000000000000000000000000000000000000000000000000000000008152508160009080519060200190620000bb9291906200022c565b508060019080519060200190620000d49291906200022c565b50505062000109620000f46200015e640100000000026401000000009004565b62000166640100000000026401000000009004565b600081116200014f576040517f08c379a0000000000000000000000000000000000000000000000000000000008152600401620001469062000361565b60405180910390fd5b8060808181525050506200041d565b600033905090565b6000600760009054906101000a900473ffffffffffffffffffffffffffffffffffffffff16905081600760006101000a81548173ffffffffffffffffffffffffffffffffffffffff021916908373ffffffffffffffffffffffffffffffffffffffff1602179055508173ffffffffffffffffffffffffffffffffffffffff168173ffffffffffffffffffffffffffffffffffffffff167f8be0079c531659141344cd1fd0a4f28419497f9722a3daafe3b4186f6b6457e060405160405180910390a35050565b8280546200023a906200039e565b90600052602060002090601f0160209004810192826200025e5760008555620002aa565b82601f106200027957805160ff1916838001178555620002aa565b82800160010185558215620002aa579182015b82811115620002a95782518255916020019190600101906200028c565b5b509050620002b99190620002bd565b5090565b5b80821115620002d8576000816000905550600101620002be565b5090565b600081519050620002ed8162000403565b92915050565b6000602082840312156200030657600080fd5b60006200031684828501620002dc565b91505092915050565b60006200032e600f8362000383565b91507f45524337323120636170206973203000000000000000000000000000000000006000830152602082019050919050565b600060208201905081810360008301526200037c816200031f565b9050919050565b600082825260208201905092915050565b6000819050919050565b60006002820490506001821680620003b757607f821691505b60208210811415620003ce57620003cd620003d4565b5b50919050565b7f4e487b7100000000000000000000000000000000000000000000000000000000600052602260045260246000fd5b6200040e8162000394565b81146200041a57600080fd5b50565b6080516135586200043960003960006108e401526135586000f3fe608060405260043610610156576000357c010000000000000000000000000000000000000000000000000000000090048063715018a6116100c8578063c87b56dd1161008c578063c87b56dd14610439578063d0def52114610476578063e39ff19f14610492578063e8a3d485146104ae578063e985e9c5146104d9578063f2fde38b146105165761015d565b8063715018a61461037a5780638da5cb5b1461039157806395d89b41146103bc578063a22cb465146103e7578063b88d4fde146104105761015d565b806318160ddd1161011a57806318160ddd1461025857806323b872dd14610283578063355274ea146102ac57806342842e0e146102d75780636352211e1461030057806370a082311461033d5761015d565b806301ffc9a71461015f57806306fdde031461019c578063081812fc146101c7578063095ea7b31461020457806312065fe01461022d5761015d565b3661015d57005b005b34801561016b57600080fd5b506101866004803603810190610181919061240d565b61053f565b6040516101939190612d8c565b60405180910390f35b3480156101a857600080fd5b506101b1610621565b6040516101be9190612da7565b60405180910390f35b3480156101d357600080fd5b506101ee60048036038101906101e9919061245f565b6106b3565b6040516101fb9190612d25565b60405180910390f35b34801561021057600080fd5b5061022b600480360381019061022691906123d1565b610738565b005b34801561023957600080fd5b50610242610850565b60405161024f9190613069565b60405180910390f35b34801561026457600080fd5b5061026d61086f565b60405161027a9190613069565b60405180910390f35b34801561028f57600080fd5b506102aa60048036038101906102a59190612277565b610880565b005b3480156102b857600080fd5b506102c16108e0565b6040516102ce9190613069565b60405180910390f35b3480156102e357600080fd5b506102fe60048036038101906102f99190612277565b610908565b005b34801561030c57600080fd5b506103276004803603810190610322919061245f565b610928565b6040516103349190612d25565b60405180910390f35b34801561034957600080fd5b50610364600480360381019061035f91906121e9565b6109da565b6040516103719190613069565b60405180910390f35b34801561038657600080fd5b5061038f610a92565b005b34801561039d57600080fd5b506103a6610b1a565b6040516103b39190612d25565b60405180910390f35b3480156103c857600080fd5b506103d1610b44565b6040516103de9190612da7565b60405180910390f35b3480156103f357600080fd5b5061040e60048036038101906104099190612341565b610bd6565b005b34801561041c57600080fd5b50610437600480360381019061043291906122c6565b610d57565b005b34801561044557600080fd5b50610460600480360381019061045b919061245f565b610db9565b60405161046d9190612da7565b60405180910390f35b610490600480360381019061048b919061237d565b610f0b565b005b6104ac60048036038101906104a79190612212565b611056565b005b3480156104ba57600080fd5b506104c3611109565b6040516104d09190612da7565b60405180910390f35b3480156104e557600080fd5b5061050060048036038101906104fb919061223b565b611129565b60405161050d9190612d8c565b60405180910390f35b34801561052257600080fd5b5061053d600480360381019061053891906121e9565b6111bd565b005b60007f80ac58cd000000000000000000000000000000000000000000000000000000007bffffffffffffffffffffffffffffffffffffffffffffffffffffffff1916827bffffffffffffffffffffffffffffffffffffffffffffffffffffffff1916148061060a57507f5b5e139f000000000000000000000000000000000000000000000000000000007bffffffffffffffffffffffffffffffffffffffffffffffffffffffff1916827bffffffffffffffffffffffffffffffffffffffffffffffffffffffff1916145b8061061a5750610619826112b5565b5b9050919050565b606060008054610630906132e6565b80601f016020809104026020016040519081016040528092919081815260200182805461065c906132e6565b80156106a95780601f1061067e576101008083540402835291602001916106a9565b820191906000526020600020905b81548152906001019060200180831161068c57829003601f168201915b5050505050905090565b60006106be8261131f565b6106fd576040517f08c379a00000000000000000000000000000000000000000000000000000000081526004016106f490612fa9565b60405180910390fd5b6004600083815260200190815260200160002060009054906101000a900473ffffffffffffffffffffffffffffffffffffffff169050919050565b600061074382610928565b90508073ffffffffffffffffffffffffffffffffffffffff168373ffffffffffffffffffffffffffffffffffffffff1614156107b4576040517f08c379a00000000000000000000000000000000000000000000000000000000081526004016107ab90613029565b60405180910390fd5b8073ffffffffffffffffffffffffffffffffffffffff166107d361138b565b73ffffffffffffffffffffffffffffffffffffffff1614806108025750610801816107fc61138b565b611129565b5b610841576040517f08c379a000000000000000000000000000000000000000000000000000000000815260040161083890612ee9565b60405180910390fd5b61084b8383611393565b505050565b60003073ffffffffffffffffffffffffffffffffffffffff1631905090565b600061087b600861144c565b905090565b61089161088b61138b565b8261145a565b6108d0576040517f08c379a00000000000000000000000000000000000000000000000000000000081526004016108c790613049565b60405180910390fd5b6108db838383611538565b505050565b60007f0000000000000000000000000000000000000000000000000000000000000000905090565b61092383838360405180602001604052806000815250610d57565b505050565b6000806002600084815260200190815260200160002060009054906101000a900473ffffffffffffffffffffffffffffffffffffffff169050600073ffffffffffffffffffffffffffffffffffffffff168173ffffffffffffffffffffffffffffffffffffffff1614156109d1576040517f08c379a00000000000000000000000000000000000000000000000000000000081526004016109c890612f29565b60405180910390fd5b80915050919050565b60008073ffffffffffffffffffffffffffffffffffffffff168273ffffffffffffffffffffffffffffffffffffffff161415610a4b576040517f08c379a0000000000000000000000000000000000000000000000000000000008152600401610a4290612f09565b60405180910390fd5b600360008373ffffffffffffffffffffffffffffffffffffffff1673ffffffffffffffffffffffffffffffffffffffff168152602001908152602001600020549050919050565b610a9a61138b565b73ffffffffffffffffffffffffffffffffffffffff16610ab8610b1a565b73ffffffffffffffffffffffffffffffffffffffff1614610b0e576040517f08c379a0000000000000000000000000000000000000000000000000000000008152600401610b0590612fc9565b60405180910390fd5b610b186000611794565b565b6000600760009054906101000a900473ffffffffffffffffffffffffffffffffffffffff16905090565b606060018054610b53906132e6565b80601f0160208091040260200160405190810160405280929190818152602001828054610b7f906132e6565b8015610bcc5780601f10610ba157610100808354040283529160200191610bcc565b820191906000526020600020905b815481529060010190602001808311610baf57829003601f168201915b5050505050905090565b610bde61138b565b73ffffffffffffffffffffffffffffffffffffffff168273ffffffffffffffffffffffffffffffffffffffff161415610c4c576040517f08c379a0000000000000000000000000000000000000000000000000000000008152600401610c4390612e69565b60405180910390fd5b8060056000610c5961138b565b73ffffffffffffffffffffffffffffffffffffffff1673ffffffffffffffffffffffffffffffffffffffff16815260200190815260200160002060008473ffffffffffffffffffffffffffffffffffffffff1673ffffffffffffffffffffffffffffffffffffffff16815260200190815260200160002060006101000a81548160ff0219169083151502179055508173ffffffffffffffffffffffffffffffffffffffff16610d0661138b565b73ffffffffffffffffffffffffffffffffffffffff167f17307eab39ab6107e8899845ad3d59bd9653f200f220920489ca2b5937696c3183604051610d4b9190612d8c565b60405180910390a35050565b610d68610d6261138b565b8361145a565b610da7576040517f08c379a0000000000000000000000000000000000000000000000000000000008152600401610d9e90613049565b60405180910390fd5b610db38484848461185a565b50505050565b6060610dc48261131f565b610e03576040517f08c379a0000000000000000000000000000000000000000000000000000000008152600401610dfa90612f89565b60405180910390fd5b6000600660008481526020019081526020016000208054610e23906132e6565b80601f0160208091040260200160405190810160405280929190818152602001828054610e4f906132e6565b8015610e9c5780601f10610e7157610100808354040283529160200191610e9c565b820191906000526020600020905b815481529060010190602001808311610e7f57829003601f168201915b505050505090506000610ead6118b6565b9050600081511415610ec3578192505050610f06565b600082511115610ef8578082604051602001610ee0929190612cec565b60405160208183030381529060405292505050610f06565b610f01846118cd565b925050505b919050565b610f1361138b565b73ffffffffffffffffffffffffffffffffffffffff16610f31610b1a565b73ffffffffffffffffffffffffffffffffffffffff1614610f87576040517f08c379a0000000000000000000000000000000000000000000000000000000008152600401610f7e90612fc9565b60405180910390fd5b610f8f6108e0565b610f9761086f565b1115610fd8576040517f08c379a0000000000000000000000000000000000000000000000000000000008152600401610fcf90612ea9565b60405180910390fd5b6611c37937e08000341015611022576040517f08c379a000000000000000000000000000000000000000000000000000000000815260040161101990612ec9565b60405180910390fd5b61102c6008611974565b61103f8261103a600861144c565b61198a565b61105261104c600861144c565b826119a8565b5050565b6000808273ffffffffffffffffffffffffffffffffffffffff163460405161107d90612d10565b60006040518083038185875af1925050503d80600081146110ba576040519150601f19603f3d011682016040523d82523d6000602084013e6110bf565b606091505b509150915081611104576040517f08c379a00000000000000000000000000000000000000000000000000000000081526004016110fb90612de9565b60405180910390fd5b505050565b60606040518060800160405280605081526020016134d360509139905090565b6000600560008473ffffffffffffffffffffffffffffffffffffffff1673ffffffffffffffffffffffffffffffffffffffff16815260200190815260200160002060008373ffffffffffffffffffffffffffffffffffffffff1673ffffffffffffffffffffffffffffffffffffffff16815260200190815260200160002060009054906101000a900460ff16905092915050565b6111c561138b565b73ffffffffffffffffffffffffffffffffffffffff166111e3610b1a565b73ffffffffffffffffffffffffffffffffffffffff1614611239576040517f08c379a000000000000000000000000000000000000000000000000000000000815260040161123090612fc9565b60405180910390fd5b600073ffffffffffffffffffffffffffffffffffffffff168173ffffffffffffffffffffffffffffffffffffffff1614156112a9576040517f08c379a00000000000000000000000000000000000000000000000000000000081526004016112a090612e09565b60405180910390fd5b6112b281611794565b50565b60007f01ffc9a7000000000000000000000000000000000000000000000000000000007bffffffffffffffffffffffffffffffffffffffffffffffffffffffff1916827bffffffffffffffffffffffffffffffffffffffffffffffffffffffff1916149050919050565b60008073ffffffffffffffffffffffffffffffffffffffff166002600084815260200190815260200160002060009054906101000a900473ffffffffffffffffffffffffffffffffffffffff1673ffffffffffffffffffffffffffffffffffffffff1614159050919050565b600033905090565b816004600083815260200190815260200160002060006101000a81548173ffffffffffffffffffffffffffffffffffffffff021916908373ffffffffffffffffffffffffffffffffffffffff160217905550808273ffffffffffffffffffffffffffffffffffffffff1661140683610928565b73ffffffffffffffffffffffffffffffffffffffff167f8c5be1e5ebec7d5bd14f71427d1e84f3dd0314c0f7b2291e5b200ac8c7c3b92560405160405180910390a45050565b600081600001549050919050565b60006114658261131f565b6114a4576040517f08c379a000000000000000000000000000000000000000000000000000000000815260040161149b90612e89565b60405180910390fd5b60006114af83610928565b90508073ffffffffffffffffffffffffffffffffffffffff168473ffffffffffffffffffffffffffffffffffffffff16148061151e57508373ffffffffffffffffffffffffffffffffffffffff16611506846106b3565b73ffffffffffffffffffffffffffffffffffffffff16145b8061152f575061152e8185611129565b5b91505092915050565b8273ffffffffffffffffffffffffffffffffffffffff1661155882610928565b73ffffffffffffffffffffffffffffffffffffffff16146115ae576040517f08c379a00000000000000000000000000000000000000000000000000000000081526004016115a590612fe9565b60405180910390fd5b600073ffffffffffffffffffffffffffffffffffffffff168273ffffffffffffffffffffffffffffffffffffffff16141561161e576040517f08c379a000000000000000000000000000000000000000000000000000000000815260040161161590612e49565b60405180910390fd5b611629838383611a1c565b611634600082611393565b6001600360008573ffffffffffffffffffffffffffffffffffffffff1673ffffffffffffffffffffffffffffffffffffffff168152602001908152602001600020600082825461168491906131ea565b925050819055506001600360008473ffffffffffffffffffffffffffffffffffffffff1673ffffffffffffffffffffffffffffffffffffffff16815260200190815260200160002060008282546116db9190613163565b92505081905550816002600083815260200190815260200160002060006101000a81548173ffffffffffffffffffffffffffffffffffffffff021916908373ffffffffffffffffffffffffffffffffffffffff160217905550808273ffffffffffffffffffffffffffffffffffffffff168473ffffffffffffffffffffffffffffffffffffffff167fddf252ad1be2c89b69c2b068fc378daa952ba7f163c4a11628f55a4df523b3ef60405160405180910390a4505050565b6000600760009054906101000a900473ffffffffffffffffffffffffffffffffffffffff16905081600760006101000a81548173ffffffffffffffffffffffffffffffffffffffff021916908373ffffffffffffffffffffffffffffffffffffffff1602179055508173ffffffffffffffffffffffffffffffffffffffff168173ffffffffffffffffffffffffffffffffffffffff167f8be0079c531659141344cd1fd0a4f28419497f9722a3daafe3b4186f6b6457e060405160405180910390a35050565b611865848484611538565b61187184848484611a21565b6118b0576040517f08c379a00000000000000000000000000000000000000000000000000000000081526004016118a790612dc9565b60405180910390fd5b50505050565b606060405180602001604052806000815250905090565b60606118d88261131f565b611917576040517f08c379a000000000000000000000000000000000000000000000000000000000815260040161190e90613009565b60405180910390fd5b60006119216118b6565b90506000815111611941576040518060200160405280600081525061196c565b8061194b84611bf0565b60405160200161195c929190612cec565b6040516020818303038152906040525b915050919050565b6001816000016000828254019250508190555050565b6119a4828260405180602001604052806000815250611dbc565b5050565b6119b18261131f565b6119f0576040517f08c379a00000000000000000000000000000000000000000000000000000000081526004016119e790612f49565b60405180910390fd5b80600660008481526020019081526020016000209080519060200190611a17929190611ff8565b505050565b505050565b6000611a428473ffffffffffffffffffffffffffffffffffffffff16611e17565b15611be3578373ffffffffffffffffffffffffffffffffffffffff1663150b7a02611a6b61138b565b8786866040518563ffffffff167c0100000000000000000000000000000000000000000000000000000000028152600401611aa99493929190612d40565b602060405180830381600087803b158015611ac357600080fd5b505af1925050508015611af457506040513d601f19601f82011682018060405250810190611af19190612436565b60015b611b77573d8060008114611b24576040519150601f19603f3d011682016040523d82523d6000602084013e611b29565b606091505b50600081511415611b6f576040517f08c379a0000000000000000000000000000000000000000000000000000000008152600401611b6690612dc9565b60405180910390fd5b805181602001fd5b63150b7a027c0100000000000000000000000000000000000000000000000000000000027bffffffffffffffffffffffffffffffffffffffffffffffffffffffff1916817bffffffffffffffffffffffffffffffffffffffffffffffffffffffff191614915050611be8565b600190505b949350505050565b60606000821415611c38576040518060400160405280600181526020017f30000000000000000000000000000000000000000000000000000000000000008152509050611db7565b600082905060005b60008214611c6a578080611c5390613318565b915050600a82611c6391906131b9565b9150611c40565b60008167ffffffffffffffff811115611cac577f4e487b7100000000000000000000000000000000000000000000000000000000600052604160045260246000fd5b6040519080825280601f01601f191660200182016040528015611cde5781602001600182028036833780820191505090505b5090505b60008514611db057600182611cf791906131ea565b9150600a85611d069190613361565b6030611d129190613163565b7f010000000000000000000000000000000000000000000000000000000000000002818381518110611d6d577f4e487b7100000000000000000000000000000000000000000000000000000000600052603260045260246000fd5b60200101907effffffffffffffffffffffffffffffffffffffffffffffffffffffffffffff1916908160001a905350600a85611da991906131b9565b9450611ce2565b8093505050505b919050565b611dc68383611e2a565b611dd36000848484611a21565b611e12576040517f08c379a0000000000000000000000000000000000000000000000000000000008152600401611e0990612dc9565b60405180910390fd5b505050565b600080823b905060008111915050919050565b600073ffffffffffffffffffffffffffffffffffffffff168273ffffffffffffffffffffffffffffffffffffffff161415611e9a576040517f08c379a0000000000000000000000000000000000000000000000000000000008152600401611e9190612f69565b60405180910390fd5b611ea38161131f565b15611ee3576040517f08c379a0000000000000000000000000000000000000000000000000000000008152600401611eda90612e29565b60405180910390fd5b611eef60008383611a1c565b6001600360008473ffffffffffffffffffffffffffffffffffffffff1673ffffffffffffffffffffffffffffffffffffffff1681526020019081526020016000206000828254611f3f9190613163565b92505081905550816002600083815260200190815260200160002060006101000a81548173ffffffffffffffffffffffffffffffffffffffff021916908373ffffffffffffffffffffffffffffffffffffffff160217905550808273ffffffffffffffffffffffffffffffffffffffff16600073ffffffffffffffffffffffffffffffffffffffff167fddf252ad1be2c89b69c2b068fc378daa952ba7f163c4a11628f55a4df523b3ef60405160405180910390a45050565b828054612004906132e6565b90600052602060002090601f016020900481019282612026576000855561206d565b82601f1061203f57805160ff191683800117855561206d565b8280016001018555821561206d579182015b8281111561206c578251825591602001919060010190612051565b5b50905061207a919061207e565b5090565b5b8082111561209757600081600090555060010161207f565b5090565b60006120ae6120a9846130b5565b613084565b9050828152602081018484840111156120c657600080fd5b6120d18482856132a4565b509392505050565b60006120ec6120e7846130e5565b613084565b90508281526020810184848401111561210457600080fd5b61210f8482856132a4565b509392505050565b6000813590506121268161345f565b92915050565b60008135905061213b81613476565b92915050565b6000813590506121508161348d565b92915050565b600081359050612165816134a4565b92915050565b60008151905061217a816134a4565b92915050565b600082601f83011261219157600080fd5b81356121a184826020860161209b565b91505092915050565b600082601f8301126121bb57600080fd5b81356121cb8482602086016120d9565b91505092915050565b6000813590506121e3816134bb565b92915050565b6000602082840312156121fb57600080fd5b600061220984828501612117565b91505092915050565b60006020828403121561222457600080fd5b60006122328482850161212c565b91505092915050565b6000806040838503121561224e57600080fd5b600061225c85828601612117565b925050602061226d85828601612117565b9150509250929050565b60008060006060848603121561228c57600080fd5b600061229a86828701612117565b93505060206122ab86828701612117565b92505060406122bc868287016121d4565b9150509250925092565b600080600080608085870312156122dc57600080fd5b60006122ea87828801612117565b94505060206122fb87828801612117565b935050604061230c878288016121d4565b925050606085013567ffffffffffffffff81111561232957600080fd5b61233587828801612180565b91505092959194509250565b6000806040838503121561235457600080fd5b600061236285828601612117565b925050602061237385828601612141565b9150509250929050565b6000806040838503121561239057600080fd5b600061239e85828601612117565b925050602083013567ffffffffffffffff8111156123bb57600080fd5b6123c7858286016121aa565b9150509250929050565b600080604083850312156123e457600080fd5b60006123f285828601612117565b9250506020612403858286016121d4565b9150509250929050565b60006020828403121561241f57600080fd5b600061242d84828501612156565b91505092915050565b60006020828403121561244857600080fd5b60006124568482850161216b565b91505092915050565b60006020828403121561247157600080fd5b600061247f848285016121d4565b91505092915050565b6124918161321e565b82525050565b6124a081613242565b82525050565b60006124b182613115565b6124bb818561312b565b93506124cb8185602086016132b3565b6124d48161344e565b840191505092915050565b60006124ea82613120565b6124f48185613147565b93506125048185602086016132b3565b61250d8161344e565b840191505092915050565b600061252382613120565b61252d8185613158565b935061253d8185602086016132b3565b80840191505092915050565b6000612556603283613147565b91507f4552433732313a207472616e7366657220746f206e6f6e20455243373231526560008301527f63656976657220696d706c656d656e74657200000000000000000000000000006020830152604082019050919050565b60006125bc600f83613147565b91507f46616c69656420746f2073656e642100000000000000000000000000000000006000830152602082019050919050565b60006125fc602683613147565b91507f4f776e61626c653a206e6577206f776e657220697320746865207a65726f206160008301527f64647265737300000000000000000000000000000000000000000000000000006020830152604082019050919050565b6000612662601c83613147565b91507f4552433732313a20746f6b656e20616c7265616479206d696e746564000000006000830152602082019050919050565b60006126a2602483613147565b91507f4552433732313a207472616e7366657220746f20746865207a65726f2061646460008301527f72657373000000000000000000000000000000000000000000000000000000006020830152604082019050919050565b6000612708601983613147565b91507f4552433732313a20617070726f766520746f2063616c6c6572000000000000006000830152602082019050919050565b6000612748602c83613147565b91507f4552433732313a206f70657261746f7220717565727920666f72206e6f6e657860008301527f697374656e7420746f6b656e00000000000000000000000000000000000000006020830152604082019050919050565b60006127ae601783613147565b91507f455243373231204361703a2063617020726561636865640000000000000000006000830152602082019050919050565b60006127ee602183613147565b91507f4e6f7420656e6f756768204554482073656e743a20636865636b20707269636560008301527f2e000000000000000000000000000000000000000000000000000000000000006020830152604082019050919050565b6000612854603883613147565b91507f4552433732313a20617070726f76652063616c6c6572206973206e6f74206f7760008301527f6e6572206e6f7220617070726f76656420666f7220616c6c00000000000000006020830152604082019050919050565b60006128ba602a83613147565b91507f4552433732313a2062616c616e636520717565727920666f7220746865207a6560008301527f726f2061646472657373000000000000000000000000000000000000000000006020830152604082019050919050565b6000612920602983613147565b91507f4552433732313a206f776e657220717565727920666f72206e6f6e657869737460008301527f656e7420746f6b656e00000000000000000000000000000000000000000000006020830152604082019050919050565b6000612986602e83613147565b91507f45524337323155524953746f726167653a2055524920736574206f66206e6f6e60008301527f6578697374656e7420746f6b656e0000000000000000000000000000000000006020830152604082019050919050565b60006129ec602083613147565b91507f4552433732313a206d696e7420746f20746865207a65726f20616464726573736000830152602082019050919050565b6000612a2c603183613147565b91507f45524337323155524953746f726167653a2055524920717565727920666f722060008301527f6e6f6e6578697374656e7420746f6b656e0000000000000000000000000000006020830152604082019050919050565b6000612a92602c83613147565b91507f4552433732313a20617070726f76656420717565727920666f72206e6f6e657860008301527f697374656e7420746f6b656e00000000000000000000000000000000000000006020830152604082019050919050565b6000612af8602083613147565b91507f4f776e61626c653a2063616c6c6572206973206e6f7420746865206f776e65726000830152602082019050919050565b6000612b38602983613147565b91507f4552433732313a207472616e73666572206f6620746f6b656e2074686174206960008301527f73206e6f74206f776e00000000000000000000000000000000000000000000006020830152604082019050919050565b6000612b9e602f83613147565b91507f4552433732314d657461646174613a2055524920717565727920666f72206e6f60008301527f6e6578697374656e7420746f6b656e00000000000000000000000000000000006020830152604082019050919050565b6000612c04602183613147565b91507f4552433732313a20617070726f76616c20746f2063757272656e74206f776e6560008301527f72000000000000000000000000000000000000000000000000000000000000006020830152604082019050919050565b6000612c6a60008361313c565b9150600082019050919050565b6000612c84603183613147565b91507f4552433732313a207472616e736665722063616c6c6572206973206e6f74206f60008301527f776e6572206e6f7220617070726f7665640000000000000000000000000000006020830152604082019050919050565b612ce68161329a565b82525050565b6000612cf88285612518565b9150612d048284612518565b91508190509392505050565b6000612d1b82612c5d565b9150819050919050565b6000602082019050612d3a6000830184612488565b92915050565b6000608082019050612d556000830187612488565b612d626020830186612488565b612d6f6040830185612cdd565b8181036060830152612d8181846124a6565b905095945050505050565b6000602082019050612da16000830184612497565b92915050565b60006020820190508181036000830152612dc181846124df565b905092915050565b60006020820190508181036000830152612de281612549565b9050919050565b60006020820190508181036000830152612e02816125af565b9050919050565b60006020820190508181036000830152612e22816125ef565b9050919050565b60006020820190508181036000830152612e4281612655565b9050919050565b60006020820190508181036000830152612e6281612695565b9050919050565b60006020820190508181036000830152612e82816126fb565b9050919050565b60006020820190508181036000830152612ea28161273b565b9050919050565b60006020820190508181036000830152612ec2816127a1565b9050919050565b60006020820190508181036000830152612ee2816127e1565b9050919050565b60006020820190508181036000830152612f0281612847565b9050919050565b60006020820190508181036000830152612f22816128ad565b9050919050565b60006020820190508181036000830152612f4281612913565b9050919050565b60006020820190508181036000830152612f6281612979565b9050919050565b60006020820190508181036000830152612f82816129df565b9050919050565b60006020820190508181036000830152612fa281612a1f565b9050919050565b60006020820190508181036000830152612fc281612a85565b9050919050565b60006020820190508181036000830152612fe281612aeb565b9050919050565b6000602082019050818103600083015261300281612b2b565b9050919050565b6000602082019050818103600083015261302281612b91565b9050919050565b6000602082019050818103600083015261304281612bf7565b9050919050565b6000602082019050818103600083015261306281612c77565b9050919050565b600060208201905061307e6000830184612cdd565b92915050565b6000604051905081810181811067ffffffffffffffff821117156130ab576130aa61341f565b5b8060405250919050565b600067ffffffffffffffff8211156130d0576130cf61341f565b5b601f19601f8301169050602081019050919050565b600067ffffffffffffffff821115613100576130ff61341f565b5b601f19601f8301169050602081019050919050565b600081519050919050565b600081519050919050565b600082825260208201905092915050565b600081905092915050565b600082825260208201905092915050565b600081905092915050565b600061316e8261329a565b91506131798361329a565b9250827fffffffffffffffffffffffffffffffffffffffffffffffffffffffffffffffff038211156131ae576131ad613392565b5b828201905092915050565b60006131c48261329a565b91506131cf8361329a565b9250826131df576131de6133c1565b5b828204905092915050565b60006131f58261329a565b91506132008361329a565b92508282101561321357613212613392565b5b828203905092915050565b60006132298261327a565b9050919050565b600061323b8261327a565b9050919050565b60008115159050919050565b60007fffffffff0000000000000000000000000000000000000000000000000000000082169050919050565b600073ffffffffffffffffffffffffffffffffffffffff82169050919050565b6000819050919050565b82818337600083830152505050565b60005b838110156132d15780820151818401526020810190506132b6565b838111156132e0576000848401525b50505050565b600060028204905060018216806132fe57607f821691505b60208210811415613312576133116133f0565b5b50919050565b60006133238261329a565b91507fffffffffffffffffffffffffffffffffffffffffffffffffffffffffffffffff82141561335657613355613392565b5b600182019050919050565b600061336c8261329a565b91506133778361329a565b925082613387576133866133c1565b5b828206905092915050565b7f4e487b7100000000000000000000000000000000000000000000000000000000600052601160045260246000fd5b7f4e487b7100000000000000000000000000000000000000000000000000000000600052601260045260246000fd5b7f4e487b7100000000000000000000000000000000000000000000000000000000600052602260045260246000fd5b7f4e487b7100000000000000000000000000000000000000000000000000000000600052604160045260246000fd5b6000601f19601f8301169050919050565b6134688161321e565b811461347357600080fd5b50565b61347f81613230565b811461348a57600080fd5b50565b61349681613242565b81146134a157600080fd5b50565b6134ad8161324e565b81146134b857600080fd5b50565b6134c48161329a565b81146134cf57600080fd5b5056fe68747470733a2f2f676174657761792e70696e6174612e636c6f75642f697066732f516d524c7246356e4d4d73716b70675757536765504b4e56553270695748537a6a4756484273524b393564696f37a26469706673582212200106468c0226c4252fd516ae2867a2dd8661f416b9e5077413cc710bd1030e5864736f6c63430008000033",
  "immutableReferences": {
    "1856": [
      {
        "length": 32,
        "start": 2276
      }
    ]
  },
  "source": "// SPDX-License-Identifier: MIT\npragma solidity ^0.8.0;\n\nimport \"../../node_modules/@openzeppelin/contracts/token/ERC721/ERC721.sol\";\n// import \"../../node_modules/@openzeppelin/contracts/token/ERC721/extensions/ERC721Enumerable.sol\";\nimport \"../../node_modules/@openzeppelin/contracts/token/ERC721/extensions/ERC721URIStorage.sol\";\nimport \"../../node_modules/@openzeppelin/contracts/access/Ownable.sol\";\nimport \"../../node_modules/@openzeppelin/contracts/utils/Counters.sol\";\n\ncontract SlayerBadge is ERC721URIStorage, Ownable {\n\tusing Counters for Counters.Counter;\n\tuint256 private immutable _cap;\n\n\tCounters.Counter private _tokenIdCounter;\n\n\tconstructor(uint256 cap_) ERC721(\"ROSlayers\", \"ROS\") {\n\t\t\trequire(cap_ > 0, \"ERC721 cap is 0\");\n\t\t\t_cap = cap_;\n\t}\n\t\n\tfunction cap() public view virtual returns (uint256) {\n\t\t\treturn _cap;\n\t}\n\t\n\tfunction contractURI() public pure returns (string memory) {\n\t\t\treturn \"https://gateway.pinata.cloud/ipfs/QmRLrF5nMMsqkpgWWSgePKNVU2piWHSzjGVHBsRK95dio7\";\n\t}\n\n\tfunction mint(address to, string memory tokenURI) public payable onlyOwner {\n\t\trequire(totalSupply() <= cap(), \"ERC721 Cap: cap reached\");\n\t\trequire(msg.value >= 0.005 ether, \"Not enough ETH sent: check price.\");\n\t\t_tokenIdCounter.increment();\n\t\t_safeMint(to, _tokenIdCounter.current());\n\t\t_setTokenURI(_tokenIdCounter.current(), tokenURI);\n\t\t\t\n\t}\n\n\t// error InsufficientBalance(uint requested, uint available);\n\n\t// function send(address receiver, uint amount) public payable {\n\t// \tif (amount > balances[msg.sender])\n\t// \tbalanceOf(msg.sender); // += msg.value;\n\t// }\n\t\n\t//get the current supply of tokens\n\tfunction totalSupply() public view returns (uint256) {\n\t\treturn _tokenIdCounter.current();\n\t}\n\n\t// Transfer funds\n\tfunction transferFunds(address payable to ) public payable {\n\t\t// payable(to).transfer(msg.value);\n\t\t(bool sent, bytes memory data) = to.call{value: msg.value}(\"\");\n\t\trequire(sent, \"Falied to send!\");\t\t\n\t}\n\n\treceive() external payable {}\n\n\tfallback() external payable {}\n\n\tfunction getBalance() public view returns (uint) {\n\t\treturn address(this).balance;\n\t}\n    \n}",
  "sourcePath": "/home/drex/Projects/internship/nft/nft/src/contracts/SlayerBadge.sol",
  "compiler": {
    "name": "solc",
    "version": "0.8.0+commit.c7dfd78e.Emscripten.clang"
  },
  "schemaVersion": "3.4.3",
  "updatedAt": "2021-10-20T17:52:00.919Z",
  "devdoc": {
    "kind": "dev",
    "methods": {
      "approve(address,uint256)": {
        "details": "See {IERC721-approve}."
      },
      "balanceOf(address)": {
        "details": "See {IERC721-balanceOf}."
      },
      "getApproved(uint256)": {
        "details": "See {IERC721-getApproved}."
      },
      "isApprovedForAll(address,address)": {
        "details": "See {IERC721-isApprovedForAll}."
      },
      "name()": {
        "details": "See {IERC721Metadata-name}."
      },
      "owner()": {
        "details": "Returns the address of the current owner."
      },
      "ownerOf(uint256)": {
        "details": "See {IERC721-ownerOf}."
      },
      "renounceOwnership()": {
        "details": "Leaves the contract without owner. It will not be possible to call `onlyOwner` functions anymore. Can only be called by the current owner. NOTE: Renouncing ownership will leave the contract without an owner, thereby removing any functionality that is only available to the owner."
      },
      "safeTransferFrom(address,address,uint256)": {
        "details": "See {IERC721-safeTransferFrom}."
      },
      "safeTransferFrom(address,address,uint256,bytes)": {
        "details": "See {IERC721-safeTransferFrom}."
      },
      "setApprovalForAll(address,bool)": {
        "details": "See {IERC721-setApprovalForAll}."
      },
      "supportsInterface(bytes4)": {
        "details": "See {IERC165-supportsInterface}."
      },
      "symbol()": {
        "details": "See {IERC721Metadata-symbol}."
      },
      "tokenURI(uint256)": {
        "details": "See {IERC721Metadata-tokenURI}."
      },
      "transferFrom(address,address,uint256)": {
        "details": "See {IERC721-transferFrom}."
      },
      "transferOwnership(address)": {
        "details": "Transfers ownership of the contract to a new account (`newOwner`). Can only be called by the current owner."
      }
    },
    "version": 1
  },
  "userdoc": {
    "kind": "user",
    "methods": {},
    "version": 1
  }
}