{
  "contractName": "SlayerBadge",
  "abi": [
    {
      "inputs": [
        {
          "internalType": "uint256",
          "name": "cap_",
          "type": "uint256"
        }
      ],
      "stateMutability": "nonpayable",
      "type": "constructor"
    },
    {
      "anonymous": false,
      "inputs": [
        {
          "indexed": true,
          "internalType": "address",
          "name": "owner",
          "type": "address"
        },
        {
          "indexed": true,
          "internalType": "address",
          "name": "approved",
          "type": "address"
        },
        {
          "indexed": true,
          "internalType": "uint256",
          "name": "tokenId",
          "type": "uint256"
        }
      ],
      "name": "Approval",
      "type": "event"
    },
    {
      "anonymous": false,
      "inputs": [
        {
          "indexed": true,
          "internalType": "address",
          "name": "owner",
          "type": "address"
        },
        {
          "indexed": true,
          "internalType": "address",
          "name": "operator",
          "type": "address"
        },
        {
          "indexed": false,
          "internalType": "bool",
          "name": "approved",
          "type": "bool"
        }
      ],
      "name": "ApprovalForAll",
      "type": "event"
    },
    {
      "anonymous": false,
      "inputs": [
        {
          "indexed": true,
          "internalType": "address",
          "name": "previousOwner",
          "type": "address"
        },
        {
          "indexed": true,
          "internalType": "address",
          "name": "newOwner",
          "type": "address"
        }
      ],
      "name": "OwnershipTransferred",
      "type": "event"
    },
    {
      "anonymous": false,
      "inputs": [
        {
          "indexed": true,
          "internalType": "address",
          "name": "from",
          "type": "address"
        },
        {
          "indexed": true,
          "internalType": "address",
          "name": "to",
          "type": "address"
        },
        {
          "indexed": true,
          "internalType": "uint256",
          "name": "tokenId",
          "type": "uint256"
        }
      ],
      "name": "Transfer",
      "type": "event"
    },
    {
      "inputs": [
        {
          "internalType": "address",
          "name": "to",
          "type": "address"
        },
        {
          "internalType": "uint256",
          "name": "tokenId",
          "type": "uint256"
        }
      ],
      "name": "approve",
      "outputs": [],
      "stateMutability": "nonpayable",
      "type": "function"
    },
    {
      "inputs": [
        {
          "internalType": "address",
          "name": "owner",
          "type": "address"
        }
      ],
      "name": "balanceOf",
      "outputs": [
        {
          "internalType": "uint256",
          "name": "",
          "type": "uint256"
        }
      ],
      "stateMutability": "view",
      "type": "function"
    },
    {
      "inputs": [
        {
          "internalType": "uint256",
          "name": "tokenId",
          "type": "uint256"
        }
      ],
      "name": "getApproved",
      "outputs": [
        {
          "internalType": "address",
          "name": "",
          "type": "address"
        }
      ],
      "stateMutability": "view",
      "type": "function"
    },
    {
      "inputs": [
        {
          "internalType": "address",
          "name": "owner",
          "type": "address"
        },
        {
          "internalType": "address",
          "name": "operator",
          "type": "address"
        }
      ],
      "name": "isApprovedForAll",
      "outputs": [
        {
          "internalType": "bool",
          "name": "",
          "type": "bool"
        }
      ],
      "stateMutability": "view",
      "type": "function"
    },
    {
      "inputs": [],
      "name": "name",
      "outputs": [
        {
          "internalType": "string",
          "name": "",
          "type": "string"
        }
      ],
      "stateMutability": "view",
      "type": "function"
    },
    {
      "inputs": [],
      "name": "owner",
      "outputs": [
        {
          "internalType": "address",
          "name": "",
          "type": "address"
        }
      ],
      "stateMutability": "view",
      "type": "function"
    },
    {
      "inputs": [
        {
          "internalType": "uint256",
          "name": "tokenId",
          "type": "uint256"
        }
      ],
      "name": "ownerOf",
      "outputs": [
        {
          "internalType": "address",
          "name": "",
          "type": "address"
        }
      ],
      "stateMutability": "view",
      "type": "function"
    },
    {
      "inputs": [],
      "name": "renounceOwnership",
      "outputs": [],
      "stateMutability": "nonpayable",
      "type": "function"
    },
    {
      "inputs": [
        {
          "internalType": "address",
          "name": "from",
          "type": "address"
        },
        {
          "internalType": "address",
          "name": "to",
          "type": "address"
        },
        {
          "internalType": "uint256",
          "name": "tokenId",
          "type": "uint256"
        }
      ],
      "name": "safeTransferFrom",
      "outputs": [],
      "stateMutability": "nonpayable",
      "type": "function"
    },
    {
      "inputs": [
        {
          "internalType": "address",
          "name": "from",
          "type": "address"
        },
        {
          "internalType": "address",
          "name": "to",
          "type": "address"
        },
        {
          "internalType": "uint256",
          "name": "tokenId",
          "type": "uint256"
        },
        {
          "internalType": "bytes",
          "name": "_data",
          "type": "bytes"
        }
      ],
      "name": "safeTransferFrom",
      "outputs": [],
      "stateMutability": "nonpayable",
      "type": "function"
    },
    {
      "inputs": [
        {
          "internalType": "address",
          "name": "operator",
          "type": "address"
        },
        {
          "internalType": "bool",
          "name": "approved",
          "type": "bool"
        }
      ],
      "name": "setApprovalForAll",
      "outputs": [],
      "stateMutability": "nonpayable",
      "type": "function"
    },
    {
      "inputs": [
        {
          "internalType": "bytes4",
          "name": "interfaceId",
          "type": "bytes4"
        }
      ],
      "name": "supportsInterface",
      "outputs": [
        {
          "internalType": "bool",
          "name": "",
          "type": "bool"
        }
      ],
      "stateMutability": "view",
      "type": "function"
    },
    {
      "inputs": [],
      "name": "symbol",
      "outputs": [
        {
          "internalType": "string",
          "name": "",
          "type": "string"
        }
      ],
      "stateMutability": "view",
      "type": "function"
    },
    {
      "inputs": [
        {
          "internalType": "uint256",
          "name": "tokenId",
          "type": "uint256"
        }
      ],
      "name": "tokenURI",
      "outputs": [
        {
          "internalType": "string",
          "name": "",
          "type": "string"
        }
      ],
      "stateMutability": "view",
      "type": "function"
    },
    {
      "inputs": [
        {
          "internalType": "address",
          "name": "from",
          "type": "address"
        },
        {
          "internalType": "address",
          "name": "to",
          "type": "address"
        },
        {
          "internalType": "uint256",
          "name": "tokenId",
          "type": "uint256"
        }
      ],
      "name": "transferFrom",
      "outputs": [],
      "stateMutability": "nonpayable",
      "type": "function"
    },
    {
      "inputs": [
        {
          "internalType": "address",
          "name": "newOwner",
          "type": "address"
        }
      ],
      "name": "transferOwnership",
      "outputs": [],
      "stateMutability": "nonpayable",
      "type": "function"
    },
    {
      "inputs": [],
      "name": "cap",
      "outputs": [
        {
          "internalType": "uint256",
          "name": "",
          "type": "uint256"
        }
      ],
      "stateMutability": "view",
      "type": "function"
    },
    {
      "inputs": [],
      "name": "contractURI",
      "outputs": [
        {
          "internalType": "string",
          "name": "",
          "type": "string"
        }
      ],
      "stateMutability": "pure",
      "type": "function"
    },
    {
      "inputs": [
        {
          "internalType": "address",
          "name": "to",
          "type": "address"
        },
        {
          "internalType": "string",
          "name": "tokenURI",
          "type": "string"
        }
      ],
      "name": "mint",
      "outputs": [],
      "stateMutability": "payable",
      "type": "function"
    },
    {
      "inputs": [],
      "name": "totalSupply",
      "outputs": [
        {
          "internalType": "uint256",
          "name": "",
          "type": "uint256"
        }
      ],
      "stateMutability": "view",
      "type": "function"
    }
  ],
  "bytecode": "0x60a06040523480156200001157600080fd5b5060405162003759380380620037598339818101604052810190620000379190620002f3565b6040518060400160405280600981526020017f524f536c617965727300000000000000000000000000000000000000000000008152506040518060400160405280600381526020017f524f5300000000000000000000000000000000000000000000000000000000008152508160009080519060200190620000bb9291906200022c565b508060019080519060200190620000d49291906200022c565b50505062000109620000f46200015e640100000000026401000000009004565b62000166640100000000026401000000009004565b600081116200014f576040517f08c379a0000000000000000000000000000000000000000000000000000000008152600401620001469062000361565b60405180910390fd5b8060808181525050506200041d565b600033905090565b6000600760009054906101000a900473ffffffffffffffffffffffffffffffffffffffff16905081600760006101000a81548173ffffffffffffffffffffffffffffffffffffffff021916908373ffffffffffffffffffffffffffffffffffffffff1602179055508173ffffffffffffffffffffffffffffffffffffffff168173ffffffffffffffffffffffffffffffffffffffff167f8be0079c531659141344cd1fd0a4f28419497f9722a3daafe3b4186f6b6457e060405160405180910390a35050565b8280546200023a906200039e565b90600052602060002090601f0160209004810192826200025e5760008555620002aa565b82601f106200027957805160ff1916838001178555620002aa565b82800160010185558215620002aa579182015b82811115620002a95782518255916020019190600101906200028c565b5b509050620002b99190620002bd565b5090565b5b80821115620002d8576000816000905550600101620002be565b5090565b600081519050620002ed8162000403565b92915050565b6000602082840312156200030657600080fd5b60006200031684828501620002dc565b91505092915050565b60006200032e600f8362000383565b91507f45524337323120636170206973203000000000000000000000000000000000006000830152602082019050919050565b600060208201905081810360008301526200037c816200031f565b9050919050565b600082825260208201905092915050565b6000819050919050565b60006002820490506001821680620003b757607f821691505b60208210811415620003ce57620003cd620003d4565b5b50919050565b7f4e487b7100000000000000000000000000000000000000000000000000000000600052602260045260246000fd5b6200040e8162000394565b81146200041a57600080fd5b50565b60805161332062000439600039600061086001526133206000f3fe60806040526004361061013c576000357c010000000000000000000000000000000000000000000000000000000090048063715018a6116100bd578063c87b56dd11610081578063c87b56dd146103f0578063d0def5211461042d578063e8a3d48514610449578063e985e9c514610474578063f2fde38b146104b15761013c565b8063715018a6146103315780638da5cb5b1461034857806395d89b4114610373578063a22cb4651461039e578063b88d4fde146103c75761013c565b806323b872dd1161010457806323b872dd1461023a578063355274ea1461026357806342842e0e1461028e5780636352211e146102b757806370a08231146102f45761013c565b806301ffc9a71461014157806306fdde031461017e578063081812fc146101a9578063095ea7b3146101e657806318160ddd1461020f575b600080fd5b34801561014d57600080fd5b5061016860048036038101906101639190612298565b6104da565b6040516101759190612ba8565b60405180910390f35b34801561018a57600080fd5b506101936105bc565b6040516101a09190612bc3565b60405180910390f35b3480156101b557600080fd5b506101d060048036038101906101cb91906122ea565b61064e565b6040516101dd9190612b41565b60405180910390f35b3480156101f257600080fd5b5061020d6004803603810190610208919061225c565b6106d3565b005b34801561021b57600080fd5b506102246107eb565b6040516102319190612e65565b60405180910390f35b34801561024657600080fd5b50610261600480360381019061025c9190612102565b6107fc565b005b34801561026f57600080fd5b5061027861085c565b6040516102859190612e65565b60405180910390f35b34801561029a57600080fd5b506102b560048036038101906102b09190612102565b610884565b005b3480156102c357600080fd5b506102de60048036038101906102d991906122ea565b6108a4565b6040516102eb9190612b41565b60405180910390f35b34801561030057600080fd5b5061031b6004803603810190610316919061209d565b610956565b6040516103289190612e65565b60405180910390f35b34801561033d57600080fd5b50610346610a0e565b005b34801561035457600080fd5b5061035d610a96565b60405161036a9190612b41565b60405180910390f35b34801561037f57600080fd5b50610388610ac0565b6040516103959190612bc3565b60405180910390f35b3480156103aa57600080fd5b506103c560048036038101906103c091906121cc565b610b52565b005b3480156103d357600080fd5b506103ee60048036038101906103e99190612151565b610cd3565b005b3480156103fc57600080fd5b50610417600480360381019061041291906122ea565b610d35565b6040516104249190612bc3565b60405180910390f35b61044760048036038101906104429190612208565b610e87565b005b34801561045557600080fd5b5061045e610fd2565b60405161046b9190612bc3565b60405180910390f35b34801561048057600080fd5b5061049b600480360381019061049691906120c6565b610ff2565b6040516104a89190612ba8565b60405180910390f35b3480156104bd57600080fd5b506104d860048036038101906104d3919061209d565b611086565b005b60007f80ac58cd000000000000000000000000000000000000000000000000000000007bffffffffffffffffffffffffffffffffffffffffffffffffffffffff1916827bffffffffffffffffffffffffffffffffffffffffffffffffffffffff191614806105a557507f5b5e139f000000000000000000000000000000000000000000000000000000007bffffffffffffffffffffffffffffffffffffffffffffffffffffffff1916827bffffffffffffffffffffffffffffffffffffffffffffffffffffffff1916145b806105b557506105b48261117e565b5b9050919050565b6060600080546105cb906130c5565b80601f01602080910402602001604051908101604052809291908181526020018280546105f7906130c5565b80156106445780601f1061061957610100808354040283529160200191610644565b820191906000526020600020905b81548152906001019060200180831161062757829003601f168201915b5050505050905090565b6000610659826111e8565b610698576040517f08c379a000000000000000000000000000000000000000000000000000000000815260040161068f90612da5565b60405180910390fd5b6004600083815260200190815260200160002060009054906101000a900473ffffffffffffffffffffffffffffffffffffffff169050919050565b60006106de826108a4565b90508073ffffffffffffffffffffffffffffffffffffffff168373ffffffffffffffffffffffffffffffffffffffff16141561074f576040517f08c379a000000000000000000000000000000000000000000000000000000000815260040161074690612e25565b60405180910390fd5b8073ffffffffffffffffffffffffffffffffffffffff1661076e611254565b73ffffffffffffffffffffffffffffffffffffffff16148061079d575061079c81610797611254565b610ff2565b5b6107dc576040517f08c379a00000000000000000000000000000000000000000000000000000000081526004016107d390612ce5565b60405180910390fd5b6107e6838361125c565b505050565b60006107f76008611315565b905090565b61080d610807611254565b82611323565b61084c576040517f08c379a000000000000000000000000000000000000000000000000000000000815260040161084390612e45565b60405180910390fd5b610857838383611401565b505050565b60007f0000000000000000000000000000000000000000000000000000000000000000905090565b61089f83838360405180602001604052806000815250610cd3565b505050565b6000806002600084815260200190815260200160002060009054906101000a900473ffffffffffffffffffffffffffffffffffffffff169050600073ffffffffffffffffffffffffffffffffffffffff168173ffffffffffffffffffffffffffffffffffffffff16141561094d576040517f08c379a000000000000000000000000000000000000000000000000000000000815260040161094490612d25565b60405180910390fd5b80915050919050565b60008073ffffffffffffffffffffffffffffffffffffffff168273ffffffffffffffffffffffffffffffffffffffff1614156109c7576040517f08c379a00000000000000000000000000000000000000000000000000000000081526004016109be90612d05565b60405180910390fd5b600360008373ffffffffffffffffffffffffffffffffffffffff1673ffffffffffffffffffffffffffffffffffffffff168152602001908152602001600020549050919050565b610a16611254565b73ffffffffffffffffffffffffffffffffffffffff16610a34610a96565b73ffffffffffffffffffffffffffffffffffffffff1614610a8a576040517f08c379a0000000000000000000000000000000000000000000000000000000008152600401610a8190612dc5565b60405180910390fd5b610a94600061165d565b565b6000600760009054906101000a900473ffffffffffffffffffffffffffffffffffffffff16905090565b606060018054610acf906130c5565b80601f0160208091040260200160405190810160405280929190818152602001828054610afb906130c5565b8015610b485780601f10610b1d57610100808354040283529160200191610b48565b820191906000526020600020905b815481529060010190602001808311610b2b57829003601f168201915b5050505050905090565b610b5a611254565b73ffffffffffffffffffffffffffffffffffffffff168273ffffffffffffffffffffffffffffffffffffffff161415610bc8576040517f08c379a0000000000000000000000000000000000000000000000000000000008152600401610bbf90612c65565b60405180910390fd5b8060056000610bd5611254565b73ffffffffffffffffffffffffffffffffffffffff1673ffffffffffffffffffffffffffffffffffffffff16815260200190815260200160002060008473ffffffffffffffffffffffffffffffffffffffff1673ffffffffffffffffffffffffffffffffffffffff16815260200190815260200160002060006101000a81548160ff0219169083151502179055508173ffffffffffffffffffffffffffffffffffffffff16610c82611254565b73ffffffffffffffffffffffffffffffffffffffff167f17307eab39ab6107e8899845ad3d59bd9653f200f220920489ca2b5937696c3183604051610cc79190612ba8565b60405180910390a35050565b610ce4610cde611254565b83611323565b610d23576040517f08c379a0000000000000000000000000000000000000000000000000000000008152600401610d1a90612e45565b60405180910390fd5b610d2f84848484611723565b50505050565b6060610d40826111e8565b610d7f576040517f08c379a0000000000000000000000000000000000000000000000000000000008152600401610d7690612d85565b60405180910390fd5b6000600660008481526020019081526020016000208054610d9f906130c5565b80601f0160208091040260200160405190810160405280929190818152602001828054610dcb906130c5565b8015610e185780601f10610ded57610100808354040283529160200191610e18565b820191906000526020600020905b815481529060010190602001808311610dfb57829003601f168201915b505050505090506000610e2961177f565b9050600081511415610e3f578192505050610e82565b600082511115610e74578082604051602001610e5c929190612b1d565b60405160208183030381529060405292505050610e82565b610e7d84611796565b925050505b919050565b610e8f611254565b73ffffffffffffffffffffffffffffffffffffffff16610ead610a96565b73ffffffffffffffffffffffffffffffffffffffff1614610f03576040517f08c379a0000000000000000000000000000000000000000000000000000000008152600401610efa90612dc5565b60405180910390fd5b610f0b61085c565b610f136107eb565b1115610f54576040517f08c379a0000000000000000000000000000000000000000000000000000000008152600401610f4b90612ca5565b60405180910390fd5b6611c37937e08000341015610f9e576040517f08c379a0000000000000000000000000000000000000000000000000000000008152600401610f9590612cc5565b60405180910390fd5b610fa8600861183d565b610fbb82610fb66008611315565b611853565b610fce610fc86008611315565b82611871565b5050565b606060405180608001604052806050815260200161329b60509139905090565b6000600560008473ffffffffffffffffffffffffffffffffffffffff1673ffffffffffffffffffffffffffffffffffffffff16815260200190815260200160002060008373ffffffffffffffffffffffffffffffffffffffff1673ffffffffffffffffffffffffffffffffffffffff16815260200190815260200160002060009054906101000a900460ff16905092915050565b61108e611254565b73ffffffffffffffffffffffffffffffffffffffff166110ac610a96565b73ffffffffffffffffffffffffffffffffffffffff1614611102576040517f08c379a00000000000000000000000000000000000000000000000000000000081526004016110f990612dc5565b60405180910390fd5b600073ffffffffffffffffffffffffffffffffffffffff168173ffffffffffffffffffffffffffffffffffffffff161415611172576040517f08c379a000000000000000000000000000000000000000000000000000000000815260040161116990612c05565b60405180910390fd5b61117b8161165d565b50565b60007f01ffc9a7000000000000000000000000000000000000000000000000000000007bffffffffffffffffffffffffffffffffffffffffffffffffffffffff1916827bffffffffffffffffffffffffffffffffffffffffffffffffffffffff1916149050919050565b60008073ffffffffffffffffffffffffffffffffffffffff166002600084815260200190815260200160002060009054906101000a900473ffffffffffffffffffffffffffffffffffffffff1673ffffffffffffffffffffffffffffffffffffffff1614159050919050565b600033905090565b816004600083815260200190815260200160002060006101000a81548173ffffffffffffffffffffffffffffffffffffffff021916908373ffffffffffffffffffffffffffffffffffffffff160217905550808273ffffffffffffffffffffffffffffffffffffffff166112cf836108a4565b73ffffffffffffffffffffffffffffffffffffffff167f8c5be1e5ebec7d5bd14f71427d1e84f3dd0314c0f7b2291e5b200ac8c7c3b92560405160405180910390a45050565b600081600001549050919050565b600061132e826111e8565b61136d576040517f08c379a000000000000000000000000000000000000000000000000000000000815260040161136490612c85565b60405180910390fd5b6000611378836108a4565b90508073ffffffffffffffffffffffffffffffffffffffff168473ffffffffffffffffffffffffffffffffffffffff1614806113e757508373ffffffffffffffffffffffffffffffffffffffff166113cf8461064e565b73ffffffffffffffffffffffffffffffffffffffff16145b806113f857506113f78185610ff2565b5b91505092915050565b8273ffffffffffffffffffffffffffffffffffffffff16611421826108a4565b73ffffffffffffffffffffffffffffffffffffffff1614611477576040517f08c379a000000000000000000000000000000000000000000000000000000000815260040161146e90612de5565b60405180910390fd5b600073ffffffffffffffffffffffffffffffffffffffff168273ffffffffffffffffffffffffffffffffffffffff1614156114e7576040517f08c379a00000000000000000000000000000000000000000000000000000000081526004016114de90612c45565b60405180910390fd5b6114f28383836118e5565b6114fd60008261125c565b6001600360008573ffffffffffffffffffffffffffffffffffffffff1673ffffffffffffffffffffffffffffffffffffffff168152602001908152602001600020600082825461154d9190612fdb565b925050819055506001600360008473ffffffffffffffffffffffffffffffffffffffff1673ffffffffffffffffffffffffffffffffffffffff16815260200190815260200160002060008282546115a49190612f54565b92505081905550816002600083815260200190815260200160002060006101000a81548173ffffffffffffffffffffffffffffffffffffffff021916908373ffffffffffffffffffffffffffffffffffffffff160217905550808273ffffffffffffffffffffffffffffffffffffffff168473ffffffffffffffffffffffffffffffffffffffff167fddf252ad1be2c89b69c2b068fc378daa952ba7f163c4a11628f55a4df523b3ef60405160405180910390a4505050565b6000600760009054906101000a900473ffffffffffffffffffffffffffffffffffffffff16905081600760006101000a81548173ffffffffffffffffffffffffffffffffffffffff021916908373ffffffffffffffffffffffffffffffffffffffff1602179055508173ffffffffffffffffffffffffffffffffffffffff168173ffffffffffffffffffffffffffffffffffffffff167f8be0079c531659141344cd1fd0a4f28419497f9722a3daafe3b4186f6b6457e060405160405180910390a35050565b61172e848484611401565b61173a848484846118ea565b611779576040517f08c379a000000000000000000000000000000000000000000000000000000000815260040161177090612be5565b60405180910390fd5b50505050565b606060405180602001604052806000815250905090565b60606117a1826111e8565b6117e0576040517f08c379a00000000000000000000000000000000000000000000000000000000081526004016117d790612e05565b60405180910390fd5b60006117ea61177f565b9050600081511161180a5760405180602001604052806000815250611835565b8061181484611ab9565b604051602001611825929190612b1d565b6040516020818303038152906040525b915050919050565b6001816000016000828254019250508190555050565b61186d828260405180602001604052806000815250611c85565b5050565b61187a826111e8565b6118b9576040517f08c379a00000000000000000000000000000000000000000000000000000000081526004016118b090612d45565b60405180910390fd5b806006600084815260200190815260200160002090805190602001906118e0929190611ec1565b505050565b505050565b600061190b8473ffffffffffffffffffffffffffffffffffffffff16611ce0565b15611aac578373ffffffffffffffffffffffffffffffffffffffff1663150b7a02611934611254565b8786866040518563ffffffff167c01000000000000000000000000000000000000000000000000000000000281526004016119729493929190612b5c565b602060405180830381600087803b15801561198c57600080fd5b505af19250505080156119bd57506040513d601f19601f820116820180604052508101906119ba91906122c1565b60015b611a40573d80600081146119ed576040519150601f19603f3d011682016040523d82523d6000602084013e6119f2565b606091505b50600081511415611a38576040517f08c379a0000000000000000000000000000000000000000000000000000000008152600401611a2f90612be5565b60405180910390fd5b805181602001fd5b63150b7a027c0100000000000000000000000000000000000000000000000000000000027bffffffffffffffffffffffffffffffffffffffffffffffffffffffff1916817bffffffffffffffffffffffffffffffffffffffffffffffffffffffff191614915050611ab1565b600190505b949350505050565b60606000821415611b01576040518060400160405280600181526020017f30000000000000000000000000000000000000000000000000000000000000008152509050611c80565b600082905060005b60008214611b33578080611b1c906130f7565b915050600a82611b2c9190612faa565b9150611b09565b60008167ffffffffffffffff811115611b75577f4e487b7100000000000000000000000000000000000000000000000000000000600052604160045260246000fd5b6040519080825280601f01601f191660200182016040528015611ba75781602001600182028036833780820191505090505b5090505b60008514611c7957600182611bc09190612fdb565b9150600a85611bcf9190613140565b6030611bdb9190612f54565b7f010000000000000000000000000000000000000000000000000000000000000002818381518110611c36577f4e487b7100000000000000000000000000000000000000000000000000000000600052603260045260246000fd5b60200101907effffffffffffffffffffffffffffffffffffffffffffffffffffffffffffff1916908160001a905350600a85611c729190612faa565b9450611bab565b8093505050505b919050565b611c8f8383611cf3565b611c9c60008484846118ea565b611cdb576040517f08c379a0000000000000000000000000000000000000000000000000000000008152600401611cd290612be5565b60405180910390fd5b505050565b600080823b905060008111915050919050565b600073ffffffffffffffffffffffffffffffffffffffff168273ffffffffffffffffffffffffffffffffffffffff161415611d63576040517f08c379a0000000000000000000000000000000000000000000000000000000008152600401611d5a90612d65565b60405180910390fd5b611d6c816111e8565b15611dac576040517f08c379a0000000000000000000000000000000000000000000000000000000008152600401611da390612c25565b60405180910390fd5b611db8600083836118e5565b6001600360008473ffffffffffffffffffffffffffffffffffffffff1673ffffffffffffffffffffffffffffffffffffffff1681526020019081526020016000206000828254611e089190612f54565b92505081905550816002600083815260200190815260200160002060006101000a81548173ffffffffffffffffffffffffffffffffffffffff021916908373ffffffffffffffffffffffffffffffffffffffff160217905550808273ffffffffffffffffffffffffffffffffffffffff16600073ffffffffffffffffffffffffffffffffffffffff167fddf252ad1be2c89b69c2b068fc378daa952ba7f163c4a11628f55a4df523b3ef60405160405180910390a45050565b828054611ecd906130c5565b90600052602060002090601f016020900481019282611eef5760008555611f36565b82601f10611f0857805160ff1916838001178555611f36565b82800160010185558215611f36579182015b82811115611f35578251825591602001919060010190611f1a565b5b509050611f439190611f47565b5090565b5b80821115611f60576000816000905550600101611f48565b5090565b6000611f77611f7284612eb1565b612e80565b905082815260208101848484011115611f8f57600080fd5b611f9a848285613083565b509392505050565b6000611fb5611fb084612ee1565b612e80565b905082815260208101848484011115611fcd57600080fd5b611fd8848285613083565b509392505050565b600081359050611fef8161323e565b92915050565b60008135905061200481613255565b92915050565b6000813590506120198161326c565b92915050565b60008151905061202e8161326c565b92915050565b600082601f83011261204557600080fd5b8135612055848260208601611f64565b91505092915050565b600082601f83011261206f57600080fd5b813561207f848260208601611fa2565b91505092915050565b60008135905061209781613283565b92915050565b6000602082840312156120af57600080fd5b60006120bd84828501611fe0565b91505092915050565b600080604083850312156120d957600080fd5b60006120e785828601611fe0565b92505060206120f885828601611fe0565b9150509250929050565b60008060006060848603121561211757600080fd5b600061212586828701611fe0565b935050602061213686828701611fe0565b925050604061214786828701612088565b9150509250925092565b6000806000806080858703121561216757600080fd5b600061217587828801611fe0565b945050602061218687828801611fe0565b935050604061219787828801612088565b925050606085013567ffffffffffffffff8111156121b457600080fd5b6121c087828801612034565b91505092959194509250565b600080604083850312156121df57600080fd5b60006121ed85828601611fe0565b92505060206121fe85828601611ff5565b9150509250929050565b6000806040838503121561221b57600080fd5b600061222985828601611fe0565b925050602083013567ffffffffffffffff81111561224657600080fd5b6122528582860161205e565b9150509250929050565b6000806040838503121561226f57600080fd5b600061227d85828601611fe0565b925050602061228e85828601612088565b9150509250929050565b6000602082840312156122aa57600080fd5b60006122b88482850161200a565b91505092915050565b6000602082840312156122d357600080fd5b60006122e18482850161201f565b91505092915050565b6000602082840312156122fc57600080fd5b600061230a84828501612088565b91505092915050565b61231c8161300f565b82525050565b61232b81613021565b82525050565b600061233c82612f11565b6123468185612f27565b9350612356818560208601613092565b61235f8161322d565b840191505092915050565b600061237582612f1c565b61237f8185612f38565b935061238f818560208601613092565b6123988161322d565b840191505092915050565b60006123ae82612f1c565b6123b88185612f49565b93506123c8818560208601613092565b80840191505092915050565b60006123e1603283612f38565b91507f4552433732313a207472616e7366657220746f206e6f6e20455243373231526560008301527f63656976657220696d706c656d656e74657200000000000000000000000000006020830152604082019050919050565b6000612447602683612f38565b91507f4f776e61626c653a206e6577206f776e657220697320746865207a65726f206160008301527f64647265737300000000000000000000000000000000000000000000000000006020830152604082019050919050565b60006124ad601c83612f38565b91507f4552433732313a20746f6b656e20616c7265616479206d696e746564000000006000830152602082019050919050565b60006124ed602483612f38565b91507f4552433732313a207472616e7366657220746f20746865207a65726f2061646460008301527f72657373000000000000000000000000000000000000000000000000000000006020830152604082019050919050565b6000612553601983612f38565b91507f4552433732313a20617070726f766520746f2063616c6c6572000000000000006000830152602082019050919050565b6000612593602c83612f38565b91507f4552433732313a206f70657261746f7220717565727920666f72206e6f6e657860008301527f697374656e7420746f6b656e00000000000000000000000000000000000000006020830152604082019050919050565b60006125f9601783612f38565b91507f455243373231204361703a2063617020726561636865640000000000000000006000830152602082019050919050565b6000612639602183612f38565b91507f4e6f7420656e6f756768204554482073656e743a20636865636b20707269636560008301527f2e000000000000000000000000000000000000000000000000000000000000006020830152604082019050919050565b600061269f603883612f38565b91507f4552433732313a20617070726f76652063616c6c6572206973206e6f74206f7760008301527f6e6572206e6f7220617070726f76656420666f7220616c6c00000000000000006020830152604082019050919050565b6000612705602a83612f38565b91507f4552433732313a2062616c616e636520717565727920666f7220746865207a6560008301527f726f2061646472657373000000000000000000000000000000000000000000006020830152604082019050919050565b600061276b602983612f38565b91507f4552433732313a206f776e657220717565727920666f72206e6f6e657869737460008301527f656e7420746f6b656e00000000000000000000000000000000000000000000006020830152604082019050919050565b60006127d1602e83612f38565b91507f45524337323155524953746f726167653a2055524920736574206f66206e6f6e60008301527f6578697374656e7420746f6b656e0000000000000000000000000000000000006020830152604082019050919050565b6000612837602083612f38565b91507f4552433732313a206d696e7420746f20746865207a65726f20616464726573736000830152602082019050919050565b6000612877603183612f38565b91507f45524337323155524953746f726167653a2055524920717565727920666f722060008301527f6e6f6e6578697374656e7420746f6b656e0000000000000000000000000000006020830152604082019050919050565b60006128dd602c83612f38565b91507f4552433732313a20617070726f76656420717565727920666f72206e6f6e657860008301527f697374656e7420746f6b656e00000000000000000000000000000000000000006020830152604082019050919050565b6000612943602083612f38565b91507f4f776e61626c653a2063616c6c6572206973206e6f7420746865206f776e65726000830152602082019050919050565b6000612983602983612f38565b91507f4552433732313a207472616e73666572206f6620746f6b656e2074686174206960008301527f73206e6f74206f776e00000000000000000000000000000000000000000000006020830152604082019050919050565b60006129e9602f83612f38565b91507f4552433732314d657461646174613a2055524920717565727920666f72206e6f60008301527f6e6578697374656e7420746f6b656e00000000000000000000000000000000006020830152604082019050919050565b6000612a4f602183612f38565b91507f4552433732313a20617070726f76616c20746f2063757272656e74206f776e6560008301527f72000000000000000000000000000000000000000000000000000000000000006020830152604082019050919050565b6000612ab5603183612f38565b91507f4552433732313a207472616e736665722063616c6c6572206973206e6f74206f60008301527f776e6572206e6f7220617070726f7665640000000000000000000000000000006020830152604082019050919050565b612b1781613079565b82525050565b6000612b2982856123a3565b9150612b3582846123a3565b91508190509392505050565b6000602082019050612b566000830184612313565b92915050565b6000608082019050612b716000830187612313565b612b7e6020830186612313565b612b8b6040830185612b0e565b8181036060830152612b9d8184612331565b905095945050505050565b6000602082019050612bbd6000830184612322565b92915050565b60006020820190508181036000830152612bdd818461236a565b905092915050565b60006020820190508181036000830152612bfe816123d4565b9050919050565b60006020820190508181036000830152612c1e8161243a565b9050919050565b60006020820190508181036000830152612c3e816124a0565b9050919050565b60006020820190508181036000830152612c5e816124e0565b9050919050565b60006020820190508181036000830152612c7e81612546565b9050919050565b60006020820190508181036000830152612c9e81612586565b9050919050565b60006020820190508181036000830152612cbe816125ec565b9050919050565b60006020820190508181036000830152612cde8161262c565b9050919050565b60006020820190508181036000830152612cfe81612692565b9050919050565b60006020820190508181036000830152612d1e816126f8565b9050919050565b60006020820190508181036000830152612d3e8161275e565b9050919050565b60006020820190508181036000830152612d5e816127c4565b9050919050565b60006020820190508181036000830152612d7e8161282a565b9050919050565b60006020820190508181036000830152612d9e8161286a565b9050919050565b60006020820190508181036000830152612dbe816128d0565b9050919050565b60006020820190508181036000830152612dde81612936565b9050919050565b60006020820190508181036000830152612dfe81612976565b9050919050565b60006020820190508181036000830152612e1e816129dc565b9050919050565b60006020820190508181036000830152612e3e81612a42565b9050919050565b60006020820190508181036000830152612e5e81612aa8565b9050919050565b6000602082019050612e7a6000830184612b0e565b92915050565b6000604051905081810181811067ffffffffffffffff82111715612ea757612ea66131fe565b5b8060405250919050565b600067ffffffffffffffff821115612ecc57612ecb6131fe565b5b601f19601f8301169050602081019050919050565b600067ffffffffffffffff821115612efc57612efb6131fe565b5b601f19601f8301169050602081019050919050565b600081519050919050565b600081519050919050565b600082825260208201905092915050565b600082825260208201905092915050565b600081905092915050565b6000612f5f82613079565b9150612f6a83613079565b9250827fffffffffffffffffffffffffffffffffffffffffffffffffffffffffffffffff03821115612f9f57612f9e613171565b5b828201905092915050565b6000612fb582613079565b9150612fc083613079565b925082612fd057612fcf6131a0565b5b828204905092915050565b6000612fe682613079565b9150612ff183613079565b92508282101561300457613003613171565b5b828203905092915050565b600061301a82613059565b9050919050565b60008115159050919050565b60007fffffffff0000000000000000000000000000000000000000000000000000000082169050919050565b600073ffffffffffffffffffffffffffffffffffffffff82169050919050565b6000819050919050565b82818337600083830152505050565b60005b838110156130b0578082015181840152602081019050613095565b838111156130bf576000848401525b50505050565b600060028204905060018216806130dd57607f821691505b602082108114156130f1576130f06131cf565b5b50919050565b600061310282613079565b91507fffffffffffffffffffffffffffffffffffffffffffffffffffffffffffffffff82141561313557613134613171565b5b600182019050919050565b600061314b82613079565b915061315683613079565b925082613166576131656131a0565b5b828206905092915050565b7f4e487b7100000000000000000000000000000000000000000000000000000000600052601160045260246000fd5b7f4e487b7100000000000000000000000000000000000000000000000000000000600052601260045260246000fd5b7f4e487b7100000000000000000000000000000000000000000000000000000000600052602260045260246000fd5b7f4e487b7100000000000000000000000000000000000000000000000000000000600052604160045260246000fd5b6000601f19601f8301169050919050565b6132478161300f565b811461325257600080fd5b50565b61325e81613021565b811461326957600080fd5b50565b6132758161302d565b811461328057600080fd5b50565b61328c81613079565b811461329757600080fd5b5056fe68747470733a2f2f676174657761792e70696e6174612e636c6f75642f697066732f516d524c7246356e4d4d73716b70675757536765504b4e56553270695748537a6a4756484273524b393564696f37a2646970667358221220d1520ce9aaa470d0b6fca25516341e96b9b16d4a24d5a1f0569d85c1598778de64736f6c63430008000033",
  "immutableReferences": {
    "1856": [
      {
        "length": 32,
        "start": 2144
      }
    ]
  },
  "source": "// SPDX-License-Identifier: MIT\npragma solidity ^0.8.0;\n\nimport \"../../node_modules/@openzeppelin/contracts/token/ERC721/ERC721.sol\";\n// import \"../../node_modules/@openzeppelin/contracts/token/ERC721/extensions/ERC721Enumerable.sol\";\nimport \"../../node_modules/@openzeppelin/contracts/token/ERC721/extensions/ERC721URIStorage.sol\";\nimport \"../../node_modules/@openzeppelin/contracts/access/Ownable.sol\";\nimport \"../../node_modules/@openzeppelin/contracts/utils/Counters.sol\";\n\ncontract SlayerBadge is ERC721URIStorage, Ownable {\n    using Counters for Counters.Counter;\n    uint256 private immutable _cap;\n\n    Counters.Counter private _tokenIdCounter;\n\n    constructor(uint256 cap_) ERC721(\"ROSlayers\", \"ROS\") {\n        require(cap_ > 0, \"ERC721 cap is 0\");\n        _cap = cap_;\n    }\n    \n    function cap() public view virtual returns (uint256) {\n        return _cap;\n    }\n    \n    function contractURI() public pure returns (string memory) {\n        return \"https://gateway.pinata.cloud/ipfs/QmRLrF5nMMsqkpgWWSgePKNVU2piWHSzjGVHBsRK95dio7\";\n    }\n\n    function mint(address to, string memory tokenURI) public payable onlyOwner {\n        require(totalSupply() <= cap(), \"ERC721 Cap: cap reached\");\n        require(msg.value >= 0.005 ether, \"Not enough ETH sent: check price.\");\n        _tokenIdCounter.increment();\n        _safeMint(to, _tokenIdCounter.current());\n        _setTokenURI(_tokenIdCounter.current(), tokenURI);\n        \n        \n    }\n    \n    //get the current supply of tokens\n    function totalSupply() public view returns (uint256) {\n        return _tokenIdCounter.current();\n    }\n\n    \n}",
  "sourcePath": "/home/drex/Projects/internship/nft/nft/src/contracts/SlayerBadge.sol",
  "compiler": {
    "name": "solc",
    "version": "0.8.0+commit.c7dfd78e.Emscripten.clang"
  },
  "schemaVersion": "3.4.3",
  "updatedAt": "2021-10-15T20:08:08.778Z",
  "devdoc": {
    "kind": "dev",
    "methods": {
      "approve(address,uint256)": {
        "details": "See {IERC721-approve}."
      },
      "balanceOf(address)": {
        "details": "See {IERC721-balanceOf}."
      },
      "getApproved(uint256)": {
        "details": "See {IERC721-getApproved}."
      },
      "isApprovedForAll(address,address)": {
        "details": "See {IERC721-isApprovedForAll}."
      },
      "name()": {
        "details": "See {IERC721Metadata-name}."
      },
      "owner()": {
        "details": "Returns the address of the current owner."
      },
      "ownerOf(uint256)": {
        "details": "See {IERC721-ownerOf}."
      },
      "renounceOwnership()": {
        "details": "Leaves the contract without owner. It will not be possible to call `onlyOwner` functions anymore. Can only be called by the current owner. NOTE: Renouncing ownership will leave the contract without an owner, thereby removing any functionality that is only available to the owner."
      },
      "safeTransferFrom(address,address,uint256)": {
        "details": "See {IERC721-safeTransferFrom}."
      },
      "safeTransferFrom(address,address,uint256,bytes)": {
        "details": "See {IERC721-safeTransferFrom}."
      },
      "setApprovalForAll(address,bool)": {
        "details": "See {IERC721-setApprovalForAll}."
      },
      "supportsInterface(bytes4)": {
        "details": "See {IERC165-supportsInterface}."
      },
      "symbol()": {
        "details": "See {IERC721Metadata-symbol}."
      },
      "tokenURI(uint256)": {
        "details": "See {IERC721Metadata-tokenURI}."
      },
      "transferFrom(address,address,uint256)": {
        "details": "See {IERC721-transferFrom}."
      },
      "transferOwnership(address)": {
        "details": "Transfers ownership of the contract to a new account (`newOwner`). Can only be called by the current owner."
      }
    },
    "version": 1
  },
  "userdoc": {
    "kind": "user",
    "methods": {},
    "version": 1
  }
}